:100000000C94AC000C94D4000C94D4000C943205E5
:100010000C9456050C947A050C94D4000C94D400DE
:100020000C94D4000C94D4000C94D4000C94D40000
:100030000C94D4000C94D4000C94D4000C94D400F0
:100040000C94AA070C94D4000C94480A0C94790AD6
:100050000C94D4000C94D4000C94D4000C94D400D0
:100060000C94D4000C94D40000C2010001001100D3
:1000700011000C0000E100000A002500250021000D
:10008000009600001900390039003600127A00008D
:100090001F004600460044008070000022004D0012
:1000A0004D004A00004B00003600750075007200DC
:1000B000403800004A009C009C0099008025000008
:1000C0007200EC00EC00E900C0120000E900DA0167
:1000D000DA01D70160090000D701B603B603B30304
:1000E000B0040000B3036E076E076B072C0100001D
:1000F000DC0EC11DC11DBE1D000000002400270034
:100100002A0000000000250028002B00000000004D
:100110002300260029000404040404040404020249
:100120000202020203030303030301020408102076
:100130004080010204081020010204081020000081
:100140000007000201000003040600000000000098
:100150000000C1033E0BC60311241FBECFEFD8E041
:10016000DEBFCDBF12E0A0E0B1E0E8E0F8E102C000
:1001700005900D92A435B107D9F713E0A4E5B2E0DC
:1001800001C01D92A93AB107E1F711E0C6E5D1E03F
:1001900004C02297FE010E94C60BC235D107C9F7E1
:1001A0000E9480090C94F70B0C9400000895FC0148
:1001B000608313820895FC0183810895DC01139606
:1001C0002C911397621751F013966C931397119615
:1001D000ED91FC911297309709F009950895CF930E
:1001E000DF93EC018AE893E060E071E00E9476081A
:1001F0008AE893E0688142E050E00E9412098AE8B0
:1002000093E06BE171E00E947608CE010E94DB0072
:10021000882331F08AE893E066E271E00E94960854
:10022000CE010E94DB00882331F48AE893E060E38A
:1002300071E00E949608DF91CF9108958F929F926E
:10024000AF92BF92CF92DF92EF92FF920F931F93E4
:10025000DF93CF9300D000D0CDB7DEB77C0100E0B4
:1002600010E0C701800F911F0E94D6000C5F1F4F46
:1002700000321105B1F7F70112A213A214A215A2C0
:1002800010A211A200E010E091E0C92ED12C5E0175
:100290000894A11CB11C8FEE882E80E0982EB60128
:1002A000002E02C0660F771F0A94E2F7C5010E9474
:1002B000D7009B828A8289819A81AB81BC81F701B8
:1002C00081939193A193B1937F010F5F1F4F0830EA
:1002D000110529F70F900F900F900F90CF91DF919C
:1002E0001F910F91FF90EF90DF90CF90BF90AF9054
:1002F0009F908F900895EF92FF920F931F93CF934B
:10030000DF93EC0188A199A19817E9F089A37E01F8
:1003100000E010E0C801880F991F880F991F8C0F0B
:100320009D1FF701208138A1232361E009F460E0DB
:100330000E94DE000F5F1F4F84E090E0E80EF91E80
:100340000830110539F7DF91CF911F910F91FF9080
:10035000EF9008958DE061E00E9448078DE060E035
:100360000E944807089589E060E00E94480789E0FC
:1003700061E00E9448070895EF92FF920F931F9348
:10038000CF93DF93EC010E94F2072AA13BA14CA17D
:100390005DA17B018C01E21AF30A040B150BA80185
:1003A0009701223331054105510550F16AA37BA322
:1003B0008CA39DA38CE060E00E942407CE010E94E4
:1003C000B30108E010E0EE248CE00E9480072E2D9F
:1003D00030E0220F331F41E0009709F440E0F42E93
:1003E000F22AEF2CCE010E94AA010150104061F7C1
:1003F000F8A2CE010E947B018CE061E00E942407FC
:10040000DF91CF911F910F91FF90EF900895813070
:10041000910561F484E592E064E045E020E00E940B
:10042000EC058FE892E00E941E010895009721F4E8
:1004300084E592E00E94EF0608951F93182F8AE842
:1004400093E06EE871E00E947608612F772767FDE0
:1004500070958AE893E042E050E00E94650911300F
:1004600049F48AE893E068E971E00E9496088DE417
:1004700093E00AC0193469F48AE893E062EB71E012
:100480000E94960887EF92E090938E0280938D02EF
:1004900006C08AE893E063ED71E00E9496081F9120
:1004A00008951AC084E592E00E94CB03682F8091E2
:1004B0007002882329F08AE893E00E9479080CC032
:1004C000E0918D02F0918E02309721F4862F0E94E8
:1004D0001D0202C0862F099584E592E00E94EC037C
:1004E00018161906FCF208950EC08AE893E00E94DF
:1004F000BE09E0918D02F0918E02309719F40E94AE
:100500001D0201C009958AE893E00E948F09181620
:1005100019065CF308950E9474020E9451028FE84C
:1005200092E00E94BC01089540918B0250918C0290
:1005300023E732E0C90160E070E00E94E80B10920E
:100540008E0210928D0210928C0210928B020895EE
:10055000209171023091720228273927309372025C
:100560002093710208952091710230917202282B1C
:10057000392B309372022093710208959C012095CB
:10058000309580917102909172028223932390930F
:1005900072028093710208958DE061E00E94480725
:1005A0008DE060E00E94480708958AE061E00E94C3
:1005B00048078AE060E00E94480708951F93CF93A0
:1005C000DF9310917102C0E0D0E0612F61708CE088
:1005D0000E9448070E94CC0215952196C830D1058B
:1005E000A1F70E94D502DF91CF911F9108951F932B
:1005F000CF93DF93182F20918B0230918C02F90159
:10060000ED58FD4F80832F5F3F4F30938C02209336
:100610008B028AE893E0612F0E9479081D30C9F5AA
:100620008AE893E00E9481081091730280E380932E
:1006300073028AE893E063E772E00E94960883E71A
:1006400092E00E94CA0BEC018AE893E0BE0142E00E
:1006500050E00E946509143529F0183559F01F340F
:1006600069F404C0CE010E94A8020FC0CE010E940E
:10067000B3020BC0CE010E94BE0207C08AE893E01D
:1006800066EE71E00E94960802C00E94DE020E949F
:100690009402DF91CF911F910895FF920F931F93C2
:1006A000CF93DF93F82E0AE813E0C80160E172E00F
:1006B0000E949608CF2DDD27C7FDD095C801BE0149
:1006C00042E050E00E946509D0937202C09371022B
:1006D0000E94DE0210928E0210928D02DF91CF9165
:1006E0001F910F91FF900895CF93DF93CAE8D3E055
:1006F000CE0140E855E260E070E00E94C00A84E567
:1007000092E040E855E260E070E00E9419068BE05C
:1007100061E00E9448078BE061E00E9424078CE0C2
:1007200060E00E9424078DE061E00E9424078AE0D7
:1007300061E00E94240789E061E00E9424078CE0C8
:1007400060E00E9448070E94CC020E94CC020E94F6
:10075000CC020E94CC020E94CC020E94CC020E94D9
:10076000CC020E94CC020E94D5028BE060E00E9485
:100770004807CE016CE272E00E949608DF91CF91AB
:10078000089581E090E00E940702089580E090E0E3
:100790000E94070208952091B5023091B6022817F1
:1007A0003907B1F49091F8028091F702981781F01F
:1007B000E091F802F0E0E954FD4F20818091F802C9
:1007C00090E001968F7390708093F80230E002C041
:1007D0002FEF3FEFC90108952091B5023091B60285
:1007E0002817390779F48091F7022091F80290E0F8
:1007F000805C9F4F821B910960E470E00E947B0B3C
:100800009C0102C020E030E0C90108952091B502AA
:100810003091B6022817390749F48FB7F89410922F
:10082000F7029091F7029093F8028FBF08952091FC
:10083000B5023091B6022817390781F49091F80279
:100840008091F702981751F0E091F802F0E0E95436
:10085000FD4F2081332727FD309502C02FEF3FEF5A
:10086000C901089520E001972FEF8F3F9207D9F734
:100870000895FC018091B5029091B6028E179F07F2
:1008800091F0838D8E7F838F8FB7F8941092F7024B
:100890009091F7029093F802F093B602E093B502BC
:1008A0008FBF81E0089580E00895EF92FF920F934B
:1008B0001F93CF93DF93EC018B8DEE85FF859D8594
:1008C00081FF04C08081892329F445C08081892368
:1008D00009F041C08B899C890E94320408E010E035
:1008E000EE24E394FF248D899E890E943204EE85D4
:1008F000FF8580819D85892311F0FE2803C08E2D00
:100900008095F822EE0C0150104069F78F89988D80
:100910000E9432048B8D81FDF0948091F70220912A
:10092000F80290E001968F73907030E08217930781
:1009300079F0E091F702F0E0E954FD4FF082809108
:10094000F70290E001968F7390708093F70203C0D6
:100950008B8D81608B8FDF91CF911F910F91FF90D5
:10096000EF900895FC01A189B2899089662329F44A
:100970002C91892F8095822302C08C91892B8C9396
:100980000895DF92EF92FF920F931F93CF93DF931F
:10099000EC01E62E898D9A8D009739F481E090E084
:1009A0009B838A8320E030E04BC0DFB6F8948B8DC8
:1009B00061E081FF60E0CE010E94B204898D9A8DD2
:1009C00005960E9432048B8D81FF19C008E010E06B
:1009D000FF24F3948F2D8E2119F0CE0160E002C028
:1009E000CE0161E00E94B204898D9A8D0E9432048A
:1009F000FF0C0150104071F7CE0160E018C008E014
:100A000010E0FF24F3948F2D8E2119F0CE0161E0C8
:100A100002C0CE0160E00E94B204898D9A8D0E94CE
:100A20003204FF0C0150104071F7CE0161E00E94CA
:100A3000B204DFBE898D9A8D0E94320421E030E03D
:100A4000C901DF91CF911F910F91FF90EF90DF903F
:100A500008958091B5029091B602009711F00E941E
:100A6000550408951F920F920FB60F9211242F93E1
:100A70003F934F935F936F937F938F939F93AF9326
:100A8000BF93EF93FF930E942905FF91EF91BF91D0
:100A9000AF919F918F917F916F915F914F913F9116
:100AA0002F910F900FBE0F901F9018951F920F92CD
:100AB0000FB60F9211242F933F934F935F936F9331
:100AC0007F938F939F93AF93BF93EF93FF930E9476
:100AD0002905FF91EF91BF91AF919F918F917F91E8
:100AE0006F915F914F913F912F910F900FBE0F909B
:100AF0001F9018951F920F920FB60F9211242F93EB
:100B00003F934F935F936F937F938F939F93AF9395
:100B1000BF93EF93FF930E942905FF91EF91BF913F
:100B2000AF919F918F917F916F915F914F913F9185
:100B30002F910F900FBE0F901F9018951F93CF937A
:100B4000DF93EC01162F862F61E00E942407812F8E
:100B500061E00E944807812F90E0FC01E65DFE4FB6
:100B6000E491E88BFC01EA5EFE4FE491F0E0EE0FC9
:100B7000FF1FEE5FFE4F85919491898B9A8BDF91D9
:100B8000CF911F9108951F93CF93DF93EC01162F00
:100B9000862F60E00E9424078B8D81FD04C0812F89
:100BA00061E00E9448071C87812F90E0FC01E65D10
:100BB000FE4FE491ED87FC01EA5EFE4FE491F0E028
:100BC000EE0FFF1FE45FFE4F859194918E879F8704
:100BD000DF91CF911F9108951F93CF93DF93EC0185
:100BE000162F1B821A8288EE93E0A0E0B0E08C837F
:100BF0009D83AE83BF8388E392E0998388831C8AB8
:100C00001B8A1E8A1D8A188E1F8A1A8E198E8B8D3A
:100C10002170220F8C7F822B8B8FCE01642F0E943C
:100C20009E05CE01612F0E94C305DF91CF911F91D8
:100C30000895EF92FF920F931F93CF93DF93EC01F0
:100C40007A018B011A8E198E188E1F8A1E8A1D8AB0
:100C50001C8A1B8A40E050E09A01220F331F240FA8
:100C6000351F220F331F220F331FF901E859FF4FA1
:100C700085919591A591B4918E159F05A007B10717
:100C8000E9F4F901E459FF4F859194918B8B9C8B8A
:100C9000F901E259FF4F859194918D8B9E8BF9015B
:100CA000E059FF4F859194918F8B988F2E583F4F2D
:100CB000F90185919491898F9A8F06C04F5F5F4F9C
:100CC0004C30510509F0C8CF8F89988D009709F4F1
:100CD00048C09C85963108F040C02091680098304B
:100CE00020F09E3020F082E003C084E001C081E06B
:100CF000822B809368004C85483048F04E3060F07D
:100D00004631C8F1A0E0B0E0E0E0F0E009C0ADE6B7
:100D1000B0E0EDE6F0E004C0ABE6B0E0EBE6F0E01A
:100D20005081483040F481E090E002C0880F991F64
:100D30004A95E2F710C0242F30E04E3018F42850C6
:100D4000304002C02E50304081E090E002C0880F59
:100D5000991F2A95E2F7852B8C93898D9A8D0E9495
:100D60003204CE010E943904DF91CF911F910F917F
:100D7000FF90EF900895ACE6B0E0ECE6F0E0D0CF65
:100D8000FC014485463150F5483028F04E3030F0B3
:100D9000ECE6F0E005C0EDE6F0E002C0EBE6F0E0E6
:100DA0005081483040F481E090E002C0880F991FE4
:100DB0004A95E2F710C0242F30E04E3018F4285046
:100DC000304002C02E50304081E090E002C0880FD9
:100DD000991F2A95E2F7809585238083089528E35B
:100DE00032E0FC01318320830E94C00608958330E5
:100DF00071F0843028F48130A1F0823021F514C0E4
:100E00008630B1F08730D1F08430E9F404C08091AD
:100E100080008F7703C0809180008F7D8093800059
:100E2000089584B58F7702C084B58F7D84BD089501
:100E30008091B0008F778093B00008958091B000CA
:100E40008F7D8093B000089590E0FC01E65DFE4F39
:100E50002491FC01EA5EFE4FE491EE23C1F0F0E044
:100E6000EE0FFF1FE850FF4F85919491DC01662340
:100E700041F49FB7F8948C91209582238C939FBF67
:100E800008959FB7F8948C91822B8C939FBF0895FF
:100E90000F931F93DF93CF930F92CDB7DEB7282F19
:100EA00030E0F901E25CFE4F8491F901E65DFE4F0E
:100EB00014912A5E3E4FF90104910023D9F0882352
:100EC00021F069830E94F7066981E02FF0E0EE0FC0
:100ED000FF1FEE5FFE4F85919491DC019FB7F89460
:100EE000662321F48C911095812302C08C91812B73
:100EF0008C939FBF0F90CF91DF911F910F91089519
:100F00000F931F93282F30E0F901E25CFE4F84918C
:100F1000F901E65DFE4F04912A5E3E4FF9011491FE
:100F2000112391F0882311F00E94F706E12FF0E0E1
:100F3000EE0FFF1FE45FFE4F85919491DC018C91D1
:100F4000802321E030E011F420E030E0C9011F915E
:100F50000F9108951F920F920FB60F9211242F93A5
:100F60003F938F939F93AF93BF938091FD02909196
:100F7000FE02A091FF02B09100033091010301969F
:100F8000A11DB11D232F2D5F2D3720F02D57019668
:100F9000A11DB11D209301038093FD029093FE02D9
:100FA000A093FF02B09300038091F9029091FA029E
:100FB000A091FB02B091FC020196A11DB11D80938E
:100FC000F9029093FA02A093FB02B093FC02BF9146
:100FD000AF919F918F913F912F910F900FBE0F90E6
:100FE0001F9018958FB7F8942091FD023091FE0262
:100FF0004091FF02509100038FBFB901CA010895CB
:10100000789484B5826084BD84B5816084BD85B5E3
:10101000826085BD85B5816085BDEEE6F0E08081AA
:1010200081608083E1E8F0E01082808182608083CB
:10103000808181608083E0E8F0E08081816080834E
:10104000E1EBF0E0808184608083E0EBF0E0808180
:1010500081608083EAE7F0E0808184608083808122
:1010600082608083808181608083808180688083CA
:101070001092C1000895CF92DF92EF92FF920F93EA
:101080001F93CF93DF936C017B018A01C0E0D0E016
:101090000FC0D7016D917D01D601ED91FC910190BA
:1010A000F081E02DC6010995C80FD91F01501040ED
:1010B0000115110571F7CE01DF91CF911F910F91AD
:1010C000FF90EF90DF90CF900895DB010D9000200E
:1010D000E9F7AD0141505040461B570BDC01ED9143
:1010E000FC910280F381E02D099508950E94650826
:1010F0000895DC01ED91FC910190F081E02D0995BE
:1011000008950F931F93CF93DF93EC016DE00E943E
:1011100079088C01CE016AE00E947908080F191F36
:10112000C801DF91CF911F910F9108950F931F93E5
:10113000CF93DF93EC010E9465088C01CE010E94E1
:101140008108080F191FC801DF91CF911F910F91DE
:1011500008958F929F92AF92BF92CF92DF92EF92BB
:10116000FF920F931F93DF93CF93CDB7DEB7A19775
:101170000FB6F894DEBF0FBECDBF6C01042FE52F74
:10118000CB01122F19A2223008F41AE021E2E22E3C
:10119000F12CEC0EFD1E812E9924AA24BB2403C041
:1011A000022FE32FCA01602F7E2FA50194010E9418
:1011B0008E0B129F802D1124081B0894E108F10862
:1011C0000A3014F4005D01C0095CF70100832115A9
:1011D00031054105510521F7C601B7010E94650897
:1011E000A1960FB6F894DEBF0FBECDBFCF91DF91B1
:1011F0001F910F91FF90EF90DF90CF90BF90AF9035
:101200009F908F9008952115310549F4DC01ED91EF
:10121000FC910190F081E02D642F099508950E94C2
:10122000A90808950F931F93CF93DF93EC019A01C0
:10123000462F50E060E070E00E9403098C01CE016F
:101240000E948108080F191FC801DF91CF911F91DB
:101250000F910895CF92DF92EF92FF920F931F9319
:10126000CF93DF93EC017A018B012115310541F415
:10127000E881F9810190F081E02D642F09951AC071
:101280002A303105A9F477FF12C06DE20E94790877
:101290006C0144275527BA014E195F09600B710B89
:1012A000CE012AE00E94A908C80ED91E04C02AE077
:1012B0000E94A9086C01C601DF91CF911F910F9187
:1012C000FF90EF90DF90CF9008950F931F93CF93EF
:1012D000DF93EC019A01CB01AC01662757FD6095C5
:1012E000762FCE010E942A098C01CE010E9481082E
:1012F000080F191FC801DF91CF911F910F91089519
:10130000CF93DF930E9400080E947403C0E7DAE0E5
:101310000E948B022097E1F30E94700AF9CFFC0132
:1013200084859585FC01E05CFF4F208131818E5BD7
:101330009F4FFC0180819181281B390B2F733070E6
:10134000C9010895FC0184859585FC01E05CFF4F8F
:1013500040815181FC01EE5BFF4F208131814217BA
:10136000530741F00190F081E02DE80FF91F208133
:1013700030E002C02FEF3FEFC9010895FC018485E2
:101380009585FC01E05CFF4F40815181FC01EE5BE3
:10139000FF4F208131814217530771F0A081B18145
:1013A000A80FB91F2C918081918101968F73907045
:1013B0009183808330E002C02FEF3FEFC901089591
:1013C000DC011E968D919C911F97FC01E05CFF4F04
:1013D0008E5B9F4F40815181DC012D913C91119793
:1013E00042175307B9F708951F93FC01162F26855E
:1013F0003785D901A05CBF4F8D919C91019660E427
:1014000070E00E947B0BD901AE5BBF4F4D915C91A8
:10141000119784179507D1F3D901A05CBF4F0D90A8
:10142000BC91A02DA20FB31F1C93A685B785A05C0D
:10143000BF4F11969C938E93A689B7892C9181E01A
:1014400090E0058C02C0880F991F0A94E2F7282BC0
:101450002C9381E090E01F910895FB01E05CFF4F29
:10146000208131812F5F3F4F2F733070DB01AE5BE6
:10147000BF4F4D915C9111972417350739F0A0812A
:10148000B181A60FB71F8C933183208308950895EF
:101490001F920F920FB60F9211242F933F934F93E9
:1014A0005F936F937F938F939F93AF93BF93EF93CC
:1014B000FF938091C60062E073E00E942D0AFF91C5
:1014C000EF91BF91AF919F918F917F916F915F91BC
:1014D0004F913F912F910F900FBE0F901F90189535
:1014E0008AE893E00E948F09009711F00E94470A52
:1014F00008951F920F920FB60F9211242F933F93CE
:101500005F936F937F938F939F93AF93BF93EF936B
:10151000FF932091860330918703809188039091F7
:1015200089032817390731F48091C1008F7D80939A
:10153000C10016C0E0918803F0918903EA5BFC4F7B
:1015400020818091880390918903019660E470E086
:101550000E947B0B90938903809388032093C6009D
:10156000FF91EF91BF91AF919F918F917F916F917B
:101570005F913F912F910F900FBE0F901F90189584
:10158000DF92EF92FF920F931F93CF93DF93EC01C3
:101590007A018B01DD24D394403081EE580780E03E
:1015A000680780E0780749F4DD24EC89FD89108222
:1015B00060E874E88EE190E00FC0EC89FD8981E07D
:1015C00090E00E8C02C0880F991F0A94E2F7808386
:1015D00060E079E08DE390E0A80197010E948E0B16
:1015E00021503040404050405695479537952795BB
:1015F00080E12030380710F0DD20B1F6E889F98964
:101600003083EA89FB892083EE89FF89408181E06C
:1016100090E09C010A8C02C0220F331F0A94E2F76B
:10162000422B4083EE89FF8940819C010B8C02C0D4
:10163000220F331F0A94E2F7422B4083EE89FF8981
:1016400040819C010C8C02C0220F331F0A94E2F7E8
:10165000422B4083EE89FF8920810D8C02C0880FC8
:10166000991F0A94E2F7809582238083DF91CF91BE
:101670001F910F91FF90EF90DF90089510928D03CE
:1016800010928C0388EE93E0A0E0B0E080938E038C
:1016900090938F03A0939003B0939103ECE8F3E051
:1016A00088E492E09293829382E093E09587848726
:1016B00086E493E09787868785EC90E0918B808B1A
:1016C00084EC90E0938B828B80EC90E0958B848B04
:1016D00081EC90E0978B868B86EC90E0918F808FE9
:1016E00084E0828F83E0838F87E0848F85E0858F1D
:1016F00081E0868F089597FB092E07260AD077FD93
:1017000004D02ED006D000201AF4709561957F4F3A
:101710000895F6F7909581959F4F0895A1E21A2EAE
:10172000AA1BBB1BFD010DC0AA1FBB1FEE1FFF1F85
:10173000A217B307E407F50720F0A21BB30BE40BD5
:10174000F50B661F771F881F991F1A9469F760951C
:101750007095809590959B01AC01BD01CF010895D6
:10176000AA1BBB1B51E107C0AA1FBB1FA617B707C7
:1017700010F0A61BB70B881F991F5A95A9F78095E3
:101780009095BC01CD010895EE0FFF1F0590F491D7
:10179000E02D0994FC0188279927E89421912032B3
:1017A000E9F3293010F02E30C8F32B3241F02D32FE
:1017B00039F4689404C00E94EF0B820F911D2191AF
:1017C00020532A30C0F31EF4909581959F4F0895C1
:1017D000DC0101C06D9341505040E0F708957AE07C
:1017E000979F902D879F802D910D1124089511E0D2
:1017F000C6E5D1E004C0FE010E94C60B2296C835A2
:08180000D107C9F7F894FFCFEE
:101808002A2A2A2A2A2A2A2A2A2A20537769746302
:1018180068204368616E67656420002A2A2A2A2A9C
:101828002A2A2A2A2A00537769746368204F4E00AF
:10183800537769746368204F464600456E74657235
:10184800696E6720426C7565746F6F746820436FAA
:101858006D6D616E64206D6F64652C2053656E64D8
:10186800696E672027415427004154004578697400
:10187800696E6720436F6D6D616E64204D6F64659E
:10188800000D0A436D642053656E743A200052655A
:1018980063656976656420005573696E6720416CDD
:1018A8006C2052656C61792050726F636573736F39
:1018B80072005573696E6720496E6469766964754C
:1018C800616C2052656C61792050726F6365737327
:1018D8006F72004E6F2050726F636573736F722062
:1018E800666F756E6400436F756C64206E6F74204C
:1018F80066696E642061206D6574686F642077691D
:10190800746820676976656E20696E7075742E003C
:1019180052656C61792050726F636573736F7220C2
:10192800776F726B696E67202E2E2E0053544152CA
:101938005445440000000000C1043B08EC03CB03FD
:101948001704060400000000F4093B088F09BE09CB
:04195800A209E009F7
:00000001FF
