:100000000C94AC000C94D4000C94D4000C94D70342
:100010000C94FB030C941F040C94D4000C94D40097
:100020000C94D4000C94D4000C94D4000C94D40000
:100030000C94D4000C94D4000C94D4000C94D400F0
:100040000C943B090C94D4000C9408080C943908C7
:100050000C94D4000C94D4000C94D4000C94D400D0
:100060000C94D4000C94D40000C2010001001100D3
:1000700011000C0000E100000A002500250021000D
:10008000009600001900390039003600127A00008D
:100090001F004600460044008070000022004D0012
:1000A0004D004A00004B00003600750075007200DC
:1000B000403800004A009C009C0099008025000008
:1000C0007200EC00EC00E900C0120000E900DA0167
:1000D000DA01D70160090000D701B603B603B30304
:1000E000B0040000B3036E076E076B072C0100001D
:1000F000DC0EC11DC11DBE1D000000002400270034
:100100002A0000000000250028002B00000000004D
:100110002300260029000404040404040404020249
:100120000202020203030303030301020408102076
:100130004080010204081020010204081020000081
:100140000007000201000003040600000000000098
:1001500000006602FE086B0211241FBECFEFD8E03C
:10016000DEBFCDBF12E0A0E0B1E0EEE8F4E102C0F6
:1001700005900D92A031B107D9F713E0A0E1B2E0EC
:1001800001C01D92AF33B107E1F711E0C6E5D1E040
:1001900004C02297FE010E94090AC235D107C9F79F
:1001A0000E9440070C943A0A0C940000813091059B
:1001B00041F480E192E06EE04FE020E00E94910483
:1001C0000895009721F480E192E00E94940508953B
:1001D000813069F487E193E063E571E00E947D0678
:1001E00085E092E090934A02809349020FC08934DF
:1001F00069F487E193E06DE671E00E947D068FEA85
:1002000091E090934A0280934902089587E193E038
:100210006EE871E00E947D0608951AC080E192E0C8
:100220000E947002682F80912C02882329F087E1B8
:1002300093E00E9460060CC0E0914902F0914A02EE
:10024000309721F4862F0E94E80002C0862F09957E
:1002500080E192E00E94910218161906FCF20895BE
:100260000EC087E193E00E947E07E0914902F09181
:100270004A02309719F40E94E80001C0099587E10D
:1002800093E00E944F07181619065CF308950E9428
:1002900030010E940D01089540914702509148029B
:1002A0002FE232E0C90160E070E00E942B0A109258
:1002B0004A02109249021092480210924702089591
:1002C00020912D0230912E022827392730932E02BB
:1002D00020932D02089520912D0230912E02282B7B
:1002E000392B30932E0220932D0208959C012095E6
:1002F000309580912D0290912E028223932390932A
:100300002E0280932D02089581E161E00E94ED05A7
:1003100081E160E00E94ED05089582E161E00E94C4
:10032000ED0582E160E00E94ED0508951F93CF93F3
:10033000DF9310912D02C0E0D0E0612F617080E169
:100340000E94ED050E94840115952196C830D105C3
:10035000A1F70E948D01DF91CF911F9108951F9306
:10036000CF93DF93182F2091470230914802F90173
:10037000E15DFD4F80832F5F3F4F30934802209314
:10038000470287E193E0612F0E9460061D30C9F5A6
:1003900087E193E00E94680610912F0280E380932A
:1003A0002F0287E193E06FE272E00E947D068FE208
:1003B00092E00E940D0AEC0187E193E0BE0142E069
:1003C00050E00E942507143529F0183559F01F34E4
:1003D00069F404C0CE010E9460010FC0CE010E94EA
:1003E0006B010BC0CE010E94760107C087E193E04C
:1003F00061EA71E00E947D0602C00E9496010E949F
:100400004C01DF91CF911F9108951F93182F87E121
:1004100093E06BEC71E00E947D06812F992787FDA8
:10042000909590932E0280932D020E949601109237
:100430004A02109249021F910895CF93DF93C7E1BA
:10044000D3E0CE0140E855E260E070E00E94800811
:1004500080E192E040E855E260E070E00E94BE0476
:1004600083E161E00E94ED0583E161E00E94C9053E
:1004700080E161E00E94C90581E161E00E94C90557
:1004800082E161E00E94C90580E160E00E94ED0523
:100490000E9484010E9484010E9484010E948401C0
:1004A0000E9484010E9484010E9484010E948401B0
:1004B0000E948D0183E160E00E94ED05CE0167EEB0
:1004C00071E00E947D06DF91CF91089581E090E078
:1004D0000E94D600089580E090E00E94D600089522
:1004E00020914B0230914C0228173907B1F49091BA
:1004F0008E0280918D02981781F0E0918E02F0E0DB
:10050000E35BFD4F208180918E0290E001968F7316
:10051000907080938E0230E002C02FEF3FEFC90150
:10052000089520914B0230914C022817390779F435
:1005300080918D0220918E0290E0805C9F4F821B03
:10054000910960E470E00E94BE099C0102C020E0B5
:1005500030E0C901089520914B0230914C022817D8
:10056000390749F48FB7F89410928D0290918D025B
:1005700090938E028FBF089520914B0230914C02D0
:100580002817390781F490918E0280918D02981777
:1005900051F0E0918E02F0E0E35BFD4F20813327C4
:1005A00027FD309502C02FEF3FEFC901089520E0ED
:1005B00001972FEF8F3F9207D9F70895FC018091A3
:1005C0004B0290914C028E179F0791F0838D8E7F86
:1005D000838F8FB7F89410928D0290918D02909333
:1005E0008E02F0934C02E0934B028FBF81E008959E
:1005F00080E00895EF92FF920F931F93CF93DF93C4
:10060000EC018B8DEE85FF859D8581FF04C0808187
:10061000892329F445C08081892309F041C08B8951
:100620009C890E94D70208E010E0EE24E394FF24A6
:100630008D899E890E94D702EE85FF8580819D85E8
:10064000892311F0FE2803C08E2D8095F822EE0C30
:100650000150104069F78F89988D0E94D7028B8DC9
:1006600081FDF09480918D0220918E0290E00196A0
:100670008F73907030E08217930779F0E0918D02CC
:10068000F0E0E35BFD4FF08280918D0290E00196F7
:100690008F73907080938D0203C08B8D81608B8FE0
:1006A000DF91CF911F910F91FF90EF900895FC0182
:1006B000A189B2899089662329F42C91892F80958C
:1006C000822302C08C91892B8C930895DF92EF9244
:1006D000FF920F931F93CF93DF93EC01E62E898D4A
:1006E0009A8D009739F481E090E09B838A8320E023
:1006F00030E04BC0DFB6F8948B8D61E081FF60E0A5
:10070000CE010E945703898D9A8D05960E94D702CB
:100710008B8D81FF19C008E010E0FF24F3948F2D2A
:100720008E2119F0CE0160E002C0CE0161E00E948E
:100730005703898D9A8D0E94D702FF0C01501040FB
:1007400071F7CE0160E018C008E010E0FF24F394D8
:100750008F2D8E2119F0CE0161E002C0CE0160E044
:100760000E945703898D9A8D0E94D702FF0C015079
:10077000104071F7CE0161E00E945703DFBE898D02
:100780009A8D0E94D70221E030E0C901DF91CF911C
:100790001F910F91FF90EF90DF90089580914B0291
:1007A00090914C02009711F00E94FA0208951F9256
:1007B0000F920FB60F9211242F933F934F935F9395
:1007C0006F937F938F939F93AF93BF93EF93FF9319
:1007D0000E94CE03FF91EF91BF91AF919F918F91B6
:1007E0007F916F915F914F913F912F910F900FBE2D
:1007F0000F901F9018951F920F920FB60F92112411
:100800002F933F934F935F936F937F938F939F9318
:10081000AF93BF93EF93FF930E94CE03FF91EF91AD
:10082000BF91AF919F918F917F916F915F914F9108
:100830003F912F910F900FBE0F901F9018951F9210
:100840000F920FB60F9211242F933F934F935F9304
:100850006F937F938F939F93AF93BF93EF93FF9388
:100860000E94CE03FF91EF91BF91AF919F918F9125
:100870007F916F915F914F913F912F910F900FBE9C
:100880000F901F9018951F93CF93DF93EC01162FB5
:10089000862F61E00E94C905812F61E00E94ED056D
:1008A000812F90E0FC01E65DFE4FE491E88BFC01B6
:1008B000EA5EFE4FE491F0E0EE0FFF1FEE5FFE4FA9
:1008C00085919491898B9A8BDF91CF911F91089597
:1008D0001F93CF93DF93EC01162F862F60E00E94C9
:1008E000C9058B8D81FD04C0812F61E00E94ED055B
:1008F0001C87812F90E0FC01E65DFE4FE491ED87BF
:10090000FC01EA5EFE4FE491F0E0EE0FFF1FE45FB2
:10091000FE4F859194918E879F87DF91CF911F9194
:1009200008951F93CF93DF93EC01162F1B821A8239
:1009300088EE93E0A0E0B0E08C839D83AE83BF831C
:1009400083EF91E0998388831C8A1B8A1E8A1D8A03
:10095000188E1F8A1A8E198E8B8D2170220F8C7F14
:10096000822B8B8FCE01642F0E944304CE01612F16
:100970000E946804DF91CF911F910895EF92FF923A
:100980000F931F93CF93DF93EC017A018B011A8EA3
:10099000198E188E1F8A1E8A1D8A1C8A1B8A40E0A7
:1009A00050E09A01220F331F240F351F220F331FEF
:1009B000220F331FF901E859FF4F85919591A591B9
:1009C000B4918E159F05A007B107E9F4F901E45928
:1009D000FF4F859194918B8B9C8BF901E259FF4FCE
:1009E000859194918D8B9E8BF901E059FF4F8591F4
:1009F00094918F8B988F2E583F4FF9018591949148
:100A0000898F9A8F06C04F5F5F4F4C30510509F0B8
:100A1000C8CF8F89988D009709F448C09C8596317E
:100A200008F040C020916800983020F09E3020F0FF
:100A300082E003C084E001C081E0822B80936800E3
:100A40004C85483048F04E3060F04631C8F1A0E0A7
:100A5000B0E0E0E0F0E009C0ADE6B0E0EDE6F0E0E7
:100A600004C0ABE6B0E0EBE6F0E05081483040F483
:100A700081E090E002C0880F991F4A95E2F710C00C
:100A8000242F30E04E3018F42850304002C02E5051
:100A9000304081E090E002C0880F991F2A95E2F76C
:100AA000852B8C93898D9A8D0E94D702CE010E944E
:100AB000DE02DF91CF911F910F91FF90EF9008958B
:100AC000ACE6B0E0ECE6F0E0D0CFFC014485463186
:100AD00050F5483028F04E3030F0ECE6F0E005C03C
:100AE000EDE6F0E002C0EBE6F0E05081483040F483
:100AF00081E090E002C0880F991F4A95E2F710C08C
:100B0000242F30E04E3018F42850304002C02E50D0
:100B1000304081E090E002C0880F991F2A95E2F7EB
:100B2000809585238083089523EF31E0FC01318394
:100B300020830E9465050895833071F0843028F485
:100B40008130A1F0823021F514C08630B1F08730B9
:100B5000D1F08430E9F404C0809180008F7703C025
:100B6000809180008F7D80938000089584B58F7779
:100B700002C084B58F7D84BD08958091B0008F77C9
:100B80008093B00008958091B0008F7D8093B00075
:100B9000089590E0FC01E65DFE4F2491FC01EA5EC1
:100BA000FE4FE491EE23C1F0F0E0EE0FFF1FE8509E
:100BB000FF4F85919491DC01662341F49FB7F8942F
:100BC0008C91209582238C939FBF08959FB7F894B2
:100BD0008C91822B8C939FBF08950F931F93DF936B
:100BE000CF930F92CDB7DEB7282F30E0F901E25C4A
:100BF000FE4F8491F901E65DFE4F14912A5E3E4F4F
:100C0000F90104910023D9F0882321F069830E941F
:100C10009C056981E02FF0E0EE0FFF1FEE5FFE4FB5
:100C200085919491DC019FB7F894662321F48C910F
:100C30001095812302C08C91812B8C939FBF0F90C4
:100C4000CF91DF911F910F910895CF92DF92EF9294
:100C5000FF920F931F93CF93DF936C017B018A0167
:100C6000C0E0D0E00FC0D7016D917D01D601ED91BC
:100C7000FC910190F081E02DC6010995C80FD91FA4
:100C8000015010400115110571F7CE01DF91CF9190
:100C90001F910F91FF90EF90DF90CF900895DB01AF
:100CA0000D900020E9F7AD0141505040461B570B15
:100CB000DC01ED91FC910280F381E02D099508950E
:100CC000DC01ED91FC910190F081E02D09950895F2
:100CD0000F931F93CF93DF93EC016DE00E946006AA
:100CE0008C01CE016AE00E946006080F191FC8013E
:100CF000DF91CF911F910F9108950F931F93CF9381
:100D0000DF93EC010E944F068C01CE010E94680621
:100D1000080F191FC801DF91CF911F910F910895FE
:100D20008F929F92AF92BF92CF92DF92EF92FF92FB
:100D30000F931F93DF93CF93CDB7DEB7A1970FB675
:100D4000F894DEBF0FBECDBF6C01042FE52FCB01A1
:100D5000122F19A2223008F41AE021E2E22EF12C1F
:100D6000EC0EFD1E812E9924AA24BB2403C0022F61
:100D7000E32FCA01602F7E2FA50194010E94D109A3
:100D8000129F802D1124081B0894E108F1080A30F5
:100D900014F4005D01C0095CF701008321153105E1
:100DA0004105510521F7C601B7010E944F06A196E2
:100DB0000FB6F894DEBF0FBECDBFCF91DF911F916C
:100DC0000F91FF90EF90DF90CF90BF90AF909F90EA
:100DD0008F900895CF92DF92EF92FF920F931F931F
:100DE000CF93DF93EC017A018B012115310541F49A
:100DF000E881F9810190F081E02D642F09951AC0F6
:100E00002A303105A9F477FF12C06DE20E94600616
:100E10006C0144275527BA014E195F09600B710B0D
:100E2000CE012AE00E949006C80ED91E04C02AE016
:100E30000E9490066C01C601DF91CF911F910F9126
:100E4000FF90EF90DF90CF9008950F931F93CF9373
:100E5000DF93EC019A01CB01AC01662757FD609549
:100E6000762FCE010E94EA068C01CE010E94680610
:100E7000080F191FC801DF91CF911F910F9108959D
:100E8000CF93DF930E9483090E941D02C0E3D8E044
:100E90000E9447012097E1F30E943008F9CFFC013E
:100EA00084859585FC01E05CFF4F208131818E5B5C
:100EB0009F4FFC0180819181281B390B2F7330706B
:100EC000C9010895FC0184859585FC01E05CFF4F14
:100ED00040815181FC01EE5BFF4F2081318142173F
:100EE000530741F00190F081E02DE80FF91F2081B8
:100EF00030E002C02FEF3FEFC9010895FC01848567
:100F00009585FC01E05CFF4F40815181FC01EE5B67
:100F1000FF4F208131814217530771F0A081B181C9
:100F2000A80FB91F2C918081918101968F739070C9
:100F30009183808330E002C02FEF3FEFC901089515
:100F4000DC011E968D919C911F97FC01E05CFF4F88
:100F50008E5B9F4F40815181DC012D913C91119717
:100F600042175307B9F708951F93FC01162F2685E2
:100F70003785D901A05CBF4F8D919C91019660E4AB
:100F800070E00E94BE09D901AE5BBF4F4D915C91EC
:100F9000119784179507D1F3D901A05CBF4F0D902D
:100FA000BC91A02DA20FB31F1C93A685B785A05C92
:100FB000BF4F11969C938E93A689B7892C9181E09F
:100FC00090E0058C02C0880F991F0A94E2F7282B45
:100FD0002C9381E090E01F910895FB01E05CFF4FAE
:100FE000208131812F5F3F4F2F733070DB01AE5B6B
:100FF000BF4F4D915C9111972417350739F0A081AF
:10100000B181A60FB71F8C93318320830895089573
:101010001F920F920FB60F9211242F933F934F936D
:101020005F936F937F938F939F93AF93BF93EF9350
:10103000FF938091C6006FE872E00E94ED07FF9178
:10104000EF91BF91AF919F918F917F916F915F9140
:101050004F913F912F910F900FBE0F901F901895B9
:1010600087E193E00E944F07009711F00E94070864
:1010700008951F920F920FB60F9211242F933F9352
:101080005F936F937F938F939F93AF93BF93EF93F0
:10109000FF932091130330911403809115039091D5
:1010A00016032817390731F48091C1008F7D809392
:1010B000C10016C0E0911503F0911603ED52FD4FEB
:1010C00020818091150390911603019660E470E0F1
:1010D0000E94BE0990931603809315032093C600C7
:1010E000FF91EF91BF91AF919F918F917F916F9100
:1010F0005F913F912F910F900FBE0F901F90189509
:10110000DF92EF92FF920F931F93CF93DF93EC0147
:101110007A018B01DD24D394403081EE580780E0C2
:10112000680780E0780749F4DD24EC89FD891082A6
:1011300060E874E88EE190E00FC0EC89FD8981E001
:1011400090E00E8C02C0880F991F0A94E2F780830A
:1011500060E079E08DE390E0A80197010E94D10959
:10116000215030404040504056954795379527953F
:1011700080E12030380710F0DD20B1F6E889F989E8
:101180003083EA89FB892083EE89FF89408181E0F1
:1011900090E09C010A8C02C0220F331F0A94E2F7F0
:1011A000422B4083EE89FF8940819C010B8C02C059
:1011B000220F331F0A94E2F7422B4083EE89FF8906
:1011C00040819C010C8C02C0220F331F0A94E2F76D
:1011D000422B4083EE89FF8920810D8C02C0880F4D
:1011E000991F0A94E2F7809582238083DF91CF9143
:1011F0001F910F91FF90EF90DF90089510921A03C6
:101200001092190388EE93E0A0E0B0E080931B03F6
:1012100090931C03A0931D03B0931E03E9E1F3E038
:1012200083E092E0929382938FE892E0958784879F
:1012300083ED92E09787868785EC90E0918B808B99
:1012400084EC90E0938B828B80EC90E0958B848B88
:1012500081EC90E0978B868B86EC90E0918F808F6D
:1012600084E0828F83E0838F87E0848F85E0858FA1
:1012700081E0868F08951F920F920FB60F9211246E
:101280002F933F938F939F93AF93BF9380913A0394
:1012900090913B03A0913C03B0913D0330913E03FC
:1012A0000196A11DB11D232F2D5F2D3720F02D5745
:1012B0000196A11DB11D20933E0380933A039093A4
:1012C0003B03A0933C03B0933D0380913603909180
:1012D0003703A0913803B09139030196A11DB11DC8
:1012E0008093360390933703A0933803B093390368
:1012F000BF91AF919F918F913F912F910F900FBE12
:101300000F901F901895789484B5826084BD84B541
:10131000816084BD85B5826085BD85B5816085BDF0
:10132000EEE6F0E0808181608083E1E8F0E0108209
:10133000808182608083808181608083E0E8F0E04A
:10134000808181608083E1EBF0E080818460808334
:10135000E0EBF0E0808181608083EAE7F0E080816B
:1013600084608083808182608083808181608083CB
:101370008081806880831092C100089597FB092EB8
:1013800007260AD077FD04D02ED006D000201AF40C
:10139000709561957F4F0895F6F7909581959F4FD1
:1013A0000895A1E21A2EAA1BBB1BFD010DC0AA1FA6
:1013B000BB1FEE1FFF1FA217B307E407F50720F0BE
:1013C000A21BB30BE40BF50B661F771F881F991F39
:1013D0001A9469F760957095809590959B01AC0182
:1013E000BD01CF010895AA1BBB1B51E107C0AA1F75
:1013F000BB1FA617B70710F0A61BB70B881F991FB6
:101400005A95A9F780959095BC01CD010895EE0FEE
:10141000FF1F0590F491E02D0994FC01882799277E
:10142000E89421912032E9F3293010F02E30C8F3EE
:101430002B3241F02D3239F4689404C00E94320AF4
:10144000820F911D219120532A30C0F31EF49095F4
:1014500081959F4F0895DC0101C06D93415050402C
:10146000E0F708957AE0979F902D879F802D910D4A
:101470001124089511E0C6E5D1E004C0FE010E94E8
:0E148000090A2296C835D107C9F7F894FFCFA4
:10148E00456E746572696E6720426C7565746F6F18
:10149E00746820436F6D6D616E64206D6F64652C92
:1014AE002053656E64696E672027415427004154AE
:1014BE000045786974696E6720436F6D6D616E6467
:1014CE00204D6F6465000D0A436D642053656E7484
:1014DE003A20005573696E6720416C6C2052656C22
:1014EE0061792050726F636573736F720055736903
:1014FE006E6720496E646976696475616C20526509
:10150E006C61792050726F636573736F72004E6FEA
:10151E002050726F636573736F7220666F756E64A1
:10152E0000436F756C64206E6F742066696E642064
:10153E0061206D6574686F642077697468206769CF
:10154E0076656E20696E7075742E0052656C6179C9
:10155E002050726F636573736F7220776F726B6951
:10156E006E67202E2E2E00535441525445440000D7
:10157E000000006603250691027002BC02AB020059
:10158E00000000B40725064F077E076207A007007C
:00000001FF
