:100000000C94AC000C94D4000C94D4000C94CC034D
:100010000C94F0030C9414040C94D4000C94D400AD
:100020000C94D4000C94D4000C94D4000C94D40000
:100030000C94D4000C94D4000C94D4000C94D400F0
:100040000C9430090C94D4000C94FD070C942E08E9
:100050000C94D4000C94D4000C94D4000C94D400D0
:100060000C94D4000C94D40000C2010001001100D3
:1000700011000C0000E100000A002500250021000D
:10008000009600001900390039003600127A00008D
:100090001F004600460044008070000022004D0012
:1000A0004D004A00004B00003600750075007200DC
:1000B000403800004A009C009C0099008025000008
:1000C0007200EC00EC00E900C0120000E900DA0167
:1000D000DA01D70160090000D701B603B603B30304
:1000E000B0040000B3036E076E076B072C0100001D
:1000F000DC0EC11DC11DBE1D000000002400270034
:100100002A0000000000250028002B00000000004D
:100110002300260029000404040404040404020249
:100120000202020203030303030301020408102076
:100130004080010204081020010204081020000081
:100140000007000201000003040600000000000098
:1001500000005B02F308600211241FBECFEFD8E05D
:10016000DEBFCDBF12E0A0E0B1E0E8E7F4E102C0FD
:1001700005900D92AC30B107D9F713E0ACE0B2E0D6
:1001800001C01D92AB33B107E1F711E0C6E5D1E044
:1001900004C02297FE010E94FE09C235D107C9F7AB
:1001A0000E9435070C942F0A0C94000081309105B1
:1001B00041F48CE092E06EE04FE020E00E94860483
:1001C0000895009721F48CE092E00E94890508953B
:1001D000813069F483E193E063E571E00E94720687
:1001E0008AEF91E090934602809345020FC08934D4
:1001F00069F483E193E069E671E00E9472068CEA9B
:1002000091E09093460280934502089583E193E044
:100210006AE871E00E94720608951AC08CE092E0CC
:100220000E946502682F80912802882329F083E1CB
:1002300093E00E9455060CC0E0914502F091460201
:10024000309721F4862F0E94E80002C0862F09957E
:100250008CE092E00E94860218161906FCF20895BE
:100260000EC083E193E00E947307E0914502F09194
:100270004602309719F40E94E80001C0099583E115
:1002800093E00E944407181619065CF308950E9433
:1002900030010E940D0108954091430250914402A3
:1002A0002BE232E0C90160E070E00E94200A109267
:1002B00046021092450210924402109243020895A1
:1002C0000F931F93CF93DF93EC0103E113E0C80179
:1002D000BE0142E050E00E941A076091290270912D
:1002E0002A026C277D2770932A0260932902C80195
:1002F00042E050E00E941A07DF91CF911F910F91C9
:10030000089581E161E00E94E20581E160E00E94E0
:10031000E205089582E161E00E94E20582E160E089
:100320000E94E20508951F93CF93DF931091290255
:10033000C0E0D0E0612F617080E10E94E2050E9480
:10034000810115952196C830D105A1F70E948A0137
:10035000DF91CF911F9108951F93CF93DF93182FB3
:100360002091430230914402F901E55DFD4F808305
:100370002F5F3F4F309344022093430283E193E089
:10038000612F0E9455061D3089F583E193E00E949C
:100390005D0610912B0280E380932B0283E193E0B2
:1003A0006BE272E00E9472068BE292E00E94020A07
:1003B000EC0183E193E0BE0142E050E00E941A07A5
:1003C000143529F0183571F01F3429F40BC0CE0113
:1003D0000E94600107C083E193E06DE971E00E9433
:1003E000720602C00E9493010E944C01DF91CF91DE
:1003F0001F9108951F93182F83E193E067EC71E03C
:100400000E947206812F992787FD909590932A026A
:10041000809329020E949301109246021092450295
:100420001F910895CF93DF93C3E1D3E0CE0140E85D
:1004300055E260E070E00E9475088CE092E040E8D0
:1004400055E260E070E00E94B30483E161E00E9445
:10045000E20583E161E00E94BE0580E161E00E9467
:10046000BE0581E161E00E94BE0582E161E00E947B
:10047000BE0580E160E00E94E2050E9481010E94C9
:1004800081010E9481010E9481010E9481010E94DC
:1004900081010E9481010E9481010E948A0183E101
:1004A00060E00E94E205CE0163EE71E00E947206F8
:1004B000DF91CF91089581E090E00E94D6000895E9
:1004C00080E090E00E94D60008952091470230918C
:1004D000480228173907B1F490918A028091890265
:1004E000981781F0E0918A02F0E0E75BFD4F2081F0
:1004F00080918A0290E001968F73907080938A02B7
:1005000030E002C02FEF3FEFC9010895209147026C
:10051000309148022817390779F480918902209197
:100520008A0290E0805C9F4F821B910960E470E03A
:100530000E94B3099C0102C020E030E0C901089587
:1005400020914702309148022817390749F48FB7A4
:10055000F894109289029091890290938A028FBF39
:10056000089520914702309148022817390781F4F5
:1005700090918A0280918902981751F0E0918A0245
:10058000F0E0E75BFD4F2081332727FD309502C067
:100590002FEF3FEFC901089520E001972FEF8F3F24
:1005A0009207D9F70895FC01809147029091480283
:1005B0008E179F0791F0838D8E7F838F8FB7F8946E
:1005C000109289029091890290938A02F0934802D6
:1005D000E09347028FBF81E0089580E00895EF9295
:1005E000FF920F931F93CF93DF93EC018B8DEE85DA
:1005F000FF859D8581FF04C08081892329F445C042
:100600008081892309F041C08B899C890E94CC029A
:1006100008E010E0EE24E394FF248D899E890E9477
:10062000CC02EE85FF8580819D85892311F0FE280F
:1006300003C08E2D8095F822EE0C0150104069F712
:100640008F89988D0E94CC028B8D81FDF0948091D2
:10065000890220918A0290E001968F73907030E0B9
:100660008217930779F0E0918902F0E0E75BFD4F94
:10067000F0828091890290E001968F739070809350
:10068000890203C08B8D81608B8FDF91CF911F9189
:100690000F91FF90EF900895FC01A189B289908994
:1006A000662329F42C91892F8095822302C08C9196
:1006B000892B8C930895DF92EF92FF920F931F93F3
:1006C000CF93DF93EC01E62E898D9A8D009739F454
:1006D00081E090E09B838A8320E030E04BC0DFB66E
:1006E000F8948B8D61E081FF60E0CE010E944C03A5
:1006F000898D9A8D05960E94CC028B8D81FF19C041
:1007000008E010E0FF24F3948F2D8E2119F0CE0124
:1007100060E002C0CE0161E00E944C03898D9A8D99
:100720000E94CC02FF0C0150104071F7CE0160E036
:1007300018C008E010E0FF24F3948F2D8E2119F0EB
:10074000CE0161E002C0CE0160E00E944C03898DC1
:100750009A8D0E94CC02FF0C0150104071F7CE011F
:1007600061E00E944C03DFBE898D9A8D0E94CC020D
:1007700021E030E0C901DF91CF911F910F91FF90EF
:10078000EF90DF9008958091470290914802009782
:1007900011F00E94EF0208951F920F920FB60F9270
:1007A00011242F933F934F935F936F937F938F9376
:1007B0009F93AF93BF93EF93FF930E94C303FF9167
:1007C000EF91BF91AF919F918F917F916F915F91C9
:1007D0004F913F912F910F900FBE0F901F90189542
:1007E0001F920F920FB60F9211242F933F934F93A6
:1007F0005F936F937F938F939F93AF93BF93EF9389
:10080000FF930E94C303FF91EF91BF91AF919F911E
:100810008F917F916F915F914F913F912F910F90A9
:100820000FBE0F901F9018951F920F920FB60F9248
:1008300011242F933F934F935F936F937F938F93E5
:100840009F93AF93BF93EF93FF930E94C303FF91D6
:10085000EF91BF91AF919F918F917F916F915F9138
:100860004F913F912F910F900FBE0F901F901895B1
:100870001F93CF93DF93EC01162F862F61E00E9428
:10088000BE05812F61E00E94E205812F90E0FC010E
:10089000E65DFE4FE491E88BFC01EA5EFE4FE491D9
:1008A000F0E0EE0FFF1FEE5FFE4F85919491898B74
:1008B0009A8BDF91CF911F9108951F93CF93DF9370
:1008C000EC01162F862F60E00E94BE058B8D81FD06
:1008D00004C0812F61E00E94E2051C87812F90E017
:1008E000FC01E65DFE4FE491ED87FC01EA5EFE4F00
:1008F000E491F0E0EE0FFF1FE45FFE4F85919491CD
:100900008E879F87DF91CF911F9108951F93CF937B
:10091000DF93EC01162F1B821A8288EE93E0A0E091
:10092000B0E08C839D83AE83BF838FEE91E099838B
:1009300088831C8A1B8A1E8A1D8A188E1F8A1A8E1B
:10094000198E8B8D2170220F8C7F822B8B8FCE0185
:10095000642F0E943804CE01612F0E945D04DF9154
:10096000CF911F910895EF92FF920F931F93CF9312
:10097000DF93EC017A018B011A8E198E188E1F8A73
:100980001E8A1D8A1C8A1B8A40E050E09A01220FB1
:10099000331F240F351F220F331F220F331FF9017E
:1009A000E859FF4F85919591A591B4918E159F05BA
:1009B000A007B107E9F4F901E459FF4F859194913B
:1009C0008B8B9C8BF901E259FF4F859194918D8B14
:1009D0009E8BF901E059FF4F859194918F8B988FF1
:1009E0002E583F4FF90185919491898F9A8F06C0B7
:1009F0004F5F5F4F4C30510509F0C8CF8F89988DFC
:100A0000009709F448C09C85963108F040C02091B9
:100A10006800983020F09E3020F082E003C084E02F
:100A200001C081E0822B809368004C85483048F0FB
:100A30004E3060F04631C8F1A0E0B0E0E0E0F0E018
:100A400009C0ADE6B0E0EDE6F0E004C0ABE6B0E032
:100A5000EBE6F0E05081483040F481E090E002C0E5
:100A6000880F991F4A95E2F710C0242F30E04E30CE
:100A700018F42850304002C02E50304081E090E001
:100A800002C0880F991F2A95E2F7852B8C93898DD8
:100A90009A8D0E94CC02CE010E94D302DF91CF91A9
:100AA0001F910F91FF90EF900895ACE6B0E0ECE657
:100AB000F0E0D0CFFC014485463150F5483028F0B5
:100AC0004E3030F0ECE6F0E005C0EDE6F0E002C0BC
:100AD000EBE6F0E05081483040F481E090E002C065
:100AE000880F991F4A95E2F710C0242F30E04E304E
:100AF00018F42850304002C02E50304081E090E081
:100B000002C0880F991F2A95E2F78095852380837C
:100B100008952FEE31E0FC01318320830E945A05B5
:100B20000895833071F0843028F48130A1F0823050
:100B300021F514C08630B1F08730D1F08430E9F46B
:100B400004C0809180008F7703C0809180008F7DEA
:100B500080938000089584B58F7702C084B58F7D1F
:100B600084BD08958091B0008F778093B000089580
:100B70008091B0008F7D8093B000089590E0FC01DB
:100B8000E65DFE4F2491FC01EA5EFE4FE491EE2308
:100B9000C1F0F0E0EE0FFF1FE850FF4F85919491F8
:100BA000DC01662341F49FB7F8948C912095822351
:100BB0008C939FBF08959FB7F8948C91822B8C9350
:100BC0009FBF08950F931F93DF93CF930F92CDB7DD
:100BD000DEB7282F30E0F901E25CFE4F8491F90185
:100BE000E65DFE4F14912A5E3E4FF9010491002309
:100BF000D9F0882321F069830E9491056981E02F53
:100C0000F0E0EE0FFF1FEE5FFE4F85919491DC0147
:100C10009FB7F894662321F48C911095812302C02C
:100C20008C91812B8C939FBF0F90CF91DF911F915F
:100C30000F910895CF92DF92EF92FF920F931F933F
:100C4000CF93DF936C017B018A01C0E0D0E00FC03D
:100C5000D7016D917D01D601ED91FC910190F0815C
:100C6000E02DC6010995C80FD91F0150104001158C
:100C7000110571F7CE01DF91CF911F910F91FF9078
:100C8000EF90DF90CF900895DB010D900020E9F701
:100C9000AD0141505040461B570BDC01ED91FC91DA
:100CA0000280F381E02D09950895DC01ED91FC911E
:100CB0000190F081E02D099508950F931F93CF9334
:100CC000DF93EC016DE00E9455068C01CE016AE0D5
:100CD0000E945506080F191FC801DF91CF911F917F
:100CE0000F9108950F931F93CF93DF93EC010E9410
:100CF00044068C01CE010E945D06080F191FC80131
:100D0000DF91CF911F910F9108958F929F92AF9293
:100D1000BF92CF92DF92EF92FF920F931F93DF93D8
:100D2000CF93CDB7DEB7A1970FB6F894DEBF0FBE55
:100D3000CDBF6C01042FE52FCB01122F19A2223059
:100D400008F41AE021E2E22EF12CEC0EFD1E812EB9
:100D50009924AA24BB2403C0022FE32FCA01602FC9
:100D60007E2FA50194010E94C609129F802D112497
:100D7000081B0894E108F1080A3014F4005D01C072
:100D8000095CF7010083211531054105510521F763
:100D9000C601B7010E944406A1960FB6F894DEBFC3
:100DA0000FBECDBFCF91DF911F910F91FF90EF90BC
:100DB000DF90CF90BF90AF909F908F900895CF928B
:100DC000DF92EF92FF920F931F93CF93DF93EC018B
:100DD0007A018B012115310541F4E881F9810190F7
:100DE000F081E02D642F09951AC02A303105A9F44D
:100DF00077FF12C06DE20E9455066C01442755270B
:100E0000BA014E195F09600B710BCE012AE00E94F6
:100E10008506C80ED91E04C02AE00E9485066C0112
:100E2000C601DF91CF911F910F91FF90EF90DF905E
:100E3000CF9008950F931F93CF93DF93EC019A0106
:100E4000CB01AC01662757FD6095762FCE010E943D
:100E5000DF068C01CE010E945D06080F191FC80134
:100E6000DF91CF911F910F910895CF93DF930E944F
:100E700078090E941202C5E2D8E00E94470120973B
:100E8000E1F30E942508F9CFFC0184859585FC01DA
:100E9000E05CFF4F208131818E5B9F4FFC018081A0
:100EA0009181281B390B2F733070C9010895FC0103
:100EB00084859585FC01E05CFF4F40815181FC01F8
:100EC000EE5BFF4F208131814217530741F00190C3
:100ED000F081E02DE80FF91F208130E002C02FEFF4
:100EE0003FEFC9010895FC0184859585FC01E05C14
:100EF000FF4F40815181FC01EE5BFF4F208131812A
:100F00004217530771F0A081B181A80FB91F2C912E
:100F10008081918101968F7390709183808330E0FE
:100F200002C02FEF3FEFC9010895DC011E968D919D
:100F30009C911F97FC01E05CFF4F8E5B9F4F4081AF
:100F40005181DC012D913C91119742175307B9F75C
:100F500008951F93FC01162F26853785D901A05CC3
:100F6000BF4F8D919C91019660E470E00E94B3099F
:100F7000D901AE5BBF4F4D915C91119784179507D6
:100F8000D1F3D901A05CBF4F0D90BC91A02DA20F51
:100F9000B31F1C93A685B785A05CBF4F11969C9389
:100FA0008E93A689B7892C9181E090E0058C02C0D0
:100FB000880F991F0A94E2F7282B2C9381E090E088
:100FC0001F910895FB01E05CFF4F208131812F5F6D
:100FD0003F4F2F733070DB01AE5BBF4F4D915C9183
:100FE00011972417350739F0A081B181A60FB71FDB
:100FF0008C9331832083089508951F920F920FB62A
:101000000F9211242F933F934F935F936F937F938E
:101010008F939F93AF93BF93EF93FF938091C600FD
:101020006BE872E00E94E207FF91EF91BF91AF91F0
:101030009F918F917F916F915F914F913F912F91F0
:101040000F900FBE0F901F90189583E193E00E94C0
:101050004407009711F00E94FC0708951F920F9219
:101060000FB60F9211242F933F935F936F937F934B
:101070008F939F93AF93BF93EF93FF9320910F03B1
:1010800030911003809111039091120328173907B2
:1010900031F48091C1008F7D8093C10016C0E09132
:1010A0001103F0911203E153FD4F20818091110350
:1010B00090911203019660E470E00E94B30990934E
:1010C0001203809311032093C600FF91EF91BF910B
:1010D000AF919F918F917F916F915F913F912F91F0
:1010E0000F900FBE0F901F901895DF92EF92FF9216
:1010F0000F931F93CF93DF93EC017A018B01DD24D3
:10110000D394403081EE580780E0680780E078078C
:1011100049F4DD24EC89FD89108260E874E88EE1F1
:1011200090E00FC0EC89FD8981E090E00E8C02C058
:10113000880F991F0A94E2F7808360E079E08DE3DD
:1011400090E0A80197010E94C6092150304040401C
:101150005040569547953795279580E120303807C0
:1011600010F0DD20B1F6E889F9893083EA89FB893E
:101170002083EE89FF89408181E090E09C010A8C08
:1011800002C0220F331F0A94E2F7422B4083EE89FC
:10119000FF8940819C010B8C02C0220F331F0A94EF
:1011A000E2F7422B4083EE89FF8940819C010C8C41
:1011B00002C0220F331F0A94E2F7422B4083EE89CC
:1011C000FF8920810D8C02C0880F991F0A94E2F7D5
:1011D000809582238083DF91CF911F910F91FF90A3
:1011E000EF90DF900895109216031092150388EE89
:1011F00093E0A0E0B0E08093170390931803A093CE
:101200001903B0931A03E5E1F3E08FEF91E09293B5
:1012100082938BE892E0958784878FEC92E09787A2
:10122000868785EC90E0918B808B84EC90E0938BAB
:10123000828B80EC90E0958B848B81EC90E0978B97
:10124000868B86EC90E0918F808F84E0828F83E0A4
:10125000838F87E0848F85E0858F81E0868F089576
:101260001F920F920FB60F9211242F933F938F93DB
:101270009F93AF93BF938091360390913703A091D2
:101280003803B091390330913A030196A11DB11D85
:10129000232F2D5F2D3720F02D570196A11DB11D55
:1012A00020933A038093360390933703A093380337
:1012B000B09339038091320390913303A0913403AA
:1012C000B09135030196A11DB11D80933203909317
:1012D0003303A0933403B0933503BF91AF919F9133
:1012E0008F913F912F910F900FBE0F901F901895E7
:1012F000789484B5826084BD84B5816084BD85B5F1
:10130000826085BD85B5816085BDEEE6F0E08081B7
:1013100081608083E1E8F0E01082808182608083D8
:10132000808181608083E0E8F0E08081816080835B
:10133000E1EBF0E0808184608083E0EBF0E080818D
:1013400081608083EAE7F0E080818460808380812F
:1013500082608083808181608083808180688083D7
:101360001092C100089597FB092E07260AD077FD39
:1013700004D02ED006D000201AF4709561957F4FCE
:101380000895F6F7909581959F4F0895A1E21A2E42
:10139000AA1BBB1BFD010DC0AA1FBB1FEE1FFF1F19
:1013A000A217B307E407F50720F0A21BB30BE40B69
:1013B000F50B661F771F881F991F1A9469F76095B0
:1013C0007095809590959B01AC01BD01CF0108956A
:1013D000AA1BBB1B51E107C0AA1FBB1FA617B7075B
:1013E00010F0A61BB70B881F991F5A95A9F7809577
:1013F0009095BC01CD010895EE0FFF1F0590F4916B
:10140000E02D0994FC0188279927E8942191203246
:10141000E9F3293010F02E30C8F32B3241F02D3291
:1014200039F4689404C00E94270A820F911D21910B
:1014300020532A30C0F31EF4909581959F4F089554
:10144000DC0101C06D9341505040E0F708957AE00F
:10145000979F902D879F802D910D1124089511E065
:10146000C6E5D1E004C0FE010E94FE092296C835FF
:08147000D107C9F7F894FFCF82
:10147800456E746572696E6720426C7565746F6F2E
:10148800746820436F6D6D616E64206D6F64652CA8
:101498002053656E64696E672027415427004154C4
:1014A8000045786974696E6720436F6D6D616E647D
:1014B800204D6F6465000D0A436D642053656E749A
:1014C8003A20005573696E672052656C6179205027
:1014D800726F636573736F72005573696E67204925
:1014E8006E646976696475616C2052656C617920F7
:1014F80050726F636573736F72004E6F2050726F16
:10150800636573736F7220666F756E6400436F75E1
:101518006C64206E6F742066696E642061206D654E
:1015280074686F64207769746820676976656E20CF
:10153800696E7075742E0052656C61792050726FF7
:10154800636573736F7220776F726B696E67202E95
:101558002E2E005354415254454400000000005BB5
:10156800031A0686026502B102A00200000000A963
:0C157800071A0644077307570795070081
:00000001FF
