:100000000C94AC000C94D4000C94D4000C94940385
:100010000C94B8030C94DC030C94D4000C94D4001E
:100020000C94D4000C94D4000C94D4000C94D40000
:100030000C94D4000C94D4000C94D4000C94D400F0
:100040000C944B080C94D4000C9418070C9449079A
:100050000C94D4000C94D4000C94D4000C94D400D0
:100060000C94D4000C94D40000C2010001001100D3
:1000700011000C0000E100000A002500250021000D
:10008000009600001900390039003600127A00008D
:100090001F004600460044008070000022004D0012
:1000A0004D004A00004B00003600750075007200DC
:1000B000403800004A009C009C0099008025000008
:1000C0007200EC00EC00E900C0120000E900DA0167
:1000D000DA01D70160090000D701B603B603B30304
:1000E000B0040000B3036E076E076B072C0100001D
:1000F000DC0EC11DC11DBE1D000000002400270034
:100100002A0000000000250028002B00000000004D
:100110002300260029000404040404040404020249
:100120000202020203030303030301020408102076
:100130004080010204081020010204081020000081
:100140000007000201000003040600000000000098
:10015000000023020E08280211241FBECFEFD8E0B2
:10016000DEBFCDBF11E0A0E0B1E0E4E5F2E102C006
:1001700005900D92A63BB107D9F712E0A6EBB1E0CE
:1001800001C01D92AF3DB107E1F711E0C6E5D1E036
:1001900004C02297FE010E941909C235D107C9F790
:1001A0000E9450060C941D090C94000081309105AA
:1001B00041F486EB91E06EE04FE020E00E944E04B7
:1001C0000895009721F486EB91E00E94510508956F
:1001D000FF920F931F93CF93DF93FF24F394C3ED0C
:1001E000D1E004E167C087EB92E00E948E06182FF1
:1001F0008E3769F48091D2018823F1F01092D201F8
:1002000087EB92E060E071E00E943D0615C08E35FC
:1002100099F48091D201882379F4F092D20187EB8E
:1002200092E065E171E00E943D0686EB91E069E3B2
:1002300071E00E941D0609C08091D201882329F433
:1002400086EB91E0612F0E9420068091D2018823E5
:1002500089F11132A1F02091E7013091E801F90113
:10026000ED52FE4F10832F5F3F4F3093E8012093F4
:10027000E70187EB92E0612F0E9420061BC086EB0E
:1002800091E063ED71E00E941D061092E80110926A
:10029000E70187EB92E06CE371E00E941D0687EBBB
:1002A00092E063ED71E00E943D06FE01802F119205
:1002B0008A95E9F787EB92E00E945F061816190607
:1002C0000CF491CFDF91CF911F910F91FF90089582
:1002D00081E161E00E94AA0581E160E00E94AA0537
:1002E000089582E161E00E94AA0582E160E00E9437
:1002F000AA0508951F93CF93DF93182F87EB92E001
:1003000069E471E00E943D06C0E0D0E0612F6170B9
:1003100080E10E94AA050E94680115952196C830C7
:10032000D105A1F70E9471011092EA011092E90132
:10033000DF91CF911F910895CF93DF93C7EBD2E068
:10034000CE0140E855E260E070E00E94900786EB45
:1003500091E040E855E260E070E00E947B0483E1B8
:1003600061E00E94AA0583E161E00E94860580E1C8
:1003700061E00E94860581E161E00E94860582E1DC
:1003800061E00E94860580E160E00E94AA050E946B
:1003900068010E9468010E9468010E9468010E9431
:1003A00068010E9468010E9468010E9468010E9421
:1003B000710183E160E00E94AA05CE0165E671E06B
:1003C0000E943D06DF91CF910895813069F487EB5B
:1003D00092E06DE671E00E943D068AE791E090931D
:1003E000EA018093E901089587EB92E063E871E008
:1003F0000E943D0608951AC086EB91E00E942D02EE
:10040000682F8091D201882329F087EB92E00E9427
:1004100020060CC0E091E901F091EA01309721F447
:10042000862F0E94E50102C0862F099586EB91E098
:100430000E944E0218161906FCF208950E94E80068
:100440000E94FB01089581E090E00E94D60008958B
:1004500080E090E00E94D60008952091EB01309159
:10046000EC0128173907B1F490912E0280912D02EA
:10047000981781F0E0912E02F0E0E351FE4F2081C9
:1004800080912E0290E001968F73907080932E02DF
:1004900030E002C02FEF3FEFC90108952091EB013A
:1004A0003091EC012817390779F480912D022091C1
:1004B0002E0290E0805C9F4F821B910960E470E007
:1004C0000E94CE089C0102C020E030E0C9010895DE
:1004D0002091EB013091EC012817390749F48FB7CF
:1004E000F89410922D0290912D0290932E028FBFBE
:1004F00008952091EB013091EC012817390781F420
:1005000090912E0280912D02981751F0E0912E02C9
:10051000F0E0E351FE4F2081332727FD309502C0E4
:100520002FEF3FEFC901089520E001972FEF8F3F94
:100530009207D9F70895FC018091EB019091EC01AD
:100540008E179F0791F0838D8E7F838F8FB7F894DE
:1005500010922D0290912D0290932E02F093EC01B7
:10056000E093EB018FBF81E0089580E00895EF9262
:10057000FF920F931F93CF93DF93EC018B8DEE854A
:10058000FF859D8581FF04C08081892329F445C0B2
:100590008081892309F041C08B899C890E94940243
:1005A00008E010E0EE24E394FF248D899E890E94E8
:1005B0009402EE85FF8580819D85892311F0FE28B8
:1005C00003C08E2D8095F822EE0C0150104069F783
:1005D0008F89988D0E9494028B8D81FDF09480917B
:1005E0002D0220912E0290E001968F73907030E0E2
:1005F0008217930779F0E0912D02F0E0E351FE4F6E
:10060000F08280912D0290E001968F73907080931C
:100610002D0203C08B8D81608B8FDF91CF911F9155
:100620000F91FF90EF900895FC01A189B289908904
:10063000662329F42C91892F8095822302C08C9106
:10064000892B8C930895DF92EF92FF920F931F9363
:10065000CF93DF93EC01E62E898D9A8D009739F4C4
:1006600081E090E09B838A8320E030E04BC0DFB6DE
:10067000F8948B8D61E081FF60E0CE010E9414034D
:10068000898D9A8D05960E9494028B8D81FF19C0E9
:1006900008E010E0FF24F3948F2D8E2119F0CE0195
:1006A00060E002C0CE0161E00E941403898D9A8D42
:1006B0000E949402FF0C0150104071F7CE0160E0DF
:1006C00018C008E010E0FF24F3948F2D8E2119F05C
:1006D000CE0161E002C0CE0160E00E941403898D6A
:1006E0009A8D0E949402FF0C0150104071F7CE01C8
:1006F00061E00E941403DFBE898D9A8D0E949402EE
:1007000021E030E0C901DF91CF911F910F91FF905F
:10071000EF90DF9008958091EB019091EC010097AC
:1007200011F00E94B70208951F920F920FB60F9218
:1007300011242F933F934F935F936F937F938F93E6
:100740009F93AF93BF93EF93FF930E948B03FF910F
:10075000EF91BF91AF919F918F917F916F915F9139
:100760004F913F912F910F900FBE0F901F901895B2
:100770001F920F920FB60F9211242F933F934F9316
:100780005F936F937F938F939F93AF93BF93EF93F9
:10079000FF930E948B03FF91EF91BF91AF919F91C7
:1007A0008F917F916F915F914F913F912F910F901A
:1007B0000FBE0F901F9018951F920F920FB60F92B9
:1007C00011242F933F934F935F936F937F938F9356
:1007D0009F93AF93BF93EF93FF930E948B03FF917F
:1007E000EF91BF91AF919F918F917F916F915F91A9
:1007F0004F913F912F910F900FBE0F901F90189522
:100800001F93CF93DF93EC01162F862F61E00E9498
:100810008605812F61E00E94AA05812F90E0FC01EE
:10082000E65DFE4FE491E88BFC01EA5EFE4FE49149
:10083000F0E0EE0FFF1FEE5FFE4F85919491898BE4
:100840009A8BDF91CF911F9108951F93CF93DF93E0
:10085000EC01162F862F60E00E9486058B8D81FDAE
:1008600004C0812F61E00E94AA051C87812F90E0BF
:10087000FC01E65DFE4FE491ED87FC01EA5EFE4F70
:10088000E491F0E0EE0FFF1FE45FFE4F859194913D
:100890008E879F87DF91CF911F9108951F93CF93EC
:1008A000DF93EC01162F1B821A8288EE93E0A0E002
:1008B000B0E08C839D83AE83BF838AE991E0998306
:1008C00088831C8A1B8A1E8A1D8A188E1F8A1A8E8C
:1008D000198E8B8D2170220F8C7F822B8B8FCE01F6
:1008E000642F0E940004CE01612F0E942504DF9135
:1008F000CF911F910895EF92FF920F931F93CF9383
:10090000DF93EC017A018B011A8E198E188E1F8AE3
:100910001E8A1D8A1C8A1B8A40E050E09A01220F21
:10092000331F240F351F220F331F220F331FF901EE
:10093000E859FF4F85919591A591B4918E159F052A
:10094000A007B107E9F4F901E459FF4F85919491AB
:100950008B8B9C8BF901E259FF4F859194918D8B84
:100960009E8BF901E059FF4F859194918F8B988F61
:100970002E583F4FF90185919491898F9A8F06C027
:100980004F5F5F4F4C30510509F0C8CF8F89988D6C
:10099000009709F448C09C85963108F040C020912A
:1009A0006800983020F09E3020F082E003C084E0A0
:1009B00001C081E0822B809368004C85483048F06C
:1009C0004E3060F04631C8F1A0E0B0E0E0E0F0E089
:1009D00009C0ADE6B0E0EDE6F0E004C0ABE6B0E0A3
:1009E000EBE6F0E05081483040F481E090E002C056
:1009F000880F991F4A95E2F710C0242F30E04E303F
:100A000018F42850304002C02E50304081E090E071
:100A100002C0880F991F2A95E2F7852B8C93898D48
:100A20009A8D0E949402CE010E949B02DF91CF9189
:100A30001F910F91FF90EF900895ACE6B0E0ECE6C7
:100A4000F0E0D0CFFC014485463150F5483028F025
:100A50004E3030F0ECE6F0E005C0EDE6F0E002C02C
:100A6000EBE6F0E05081483040F481E090E002C0D5
:100A7000880F991F4A95E2F710C0242F30E04E30BE
:100A800018F42850304002C02E50304081E090E0F1
:100A900002C0880F991F2A95E2F7809585238083ED
:100AA00008952AE931E0FC01318320830E94220568
:100AB0000895833071F0843028F48130A1F08230C1
:100AC00021F514C08630B1F08730D1F08430E9F4DC
:100AD00004C0809180008F7703C0809180008F7D5B
:100AE00080938000089584B58F7702C084B58F7D90
:100AF00084BD08958091B0008F778093B0000895F1
:100B00008091B0008F7D8093B000089590E0FC014B
:100B1000E65DFE4F2491FC01EA5EFE4FE491EE2378
:100B2000C1F0F0E0EE0FFF1FE850FF4F8591949168
:100B3000DC01662341F49FB7F8948C9120958223C1
:100B40008C939FBF08959FB7F8948C91822B8C93C0
:100B50009FBF08950F931F93DF93CF930F92CDB74D
:100B6000DEB7282F30E0F901E25CFE4F8491F901F5
:100B7000E65DFE4F14912A5E3E4FF9010491002379
:100B8000D9F0882321F069830E9459056981E02FFB
:100B9000F0E0EE0FFF1FEE5FFE4F85919491DC01B8
:100BA0009FB7F894662321F48C911095812302C09D
:100BB0008C91812B8C939FBF0F90CF91DF911F91D0
:100BC0000F910895CF92DF92EF92FF920F931F93B0
:100BD000CF93DF936C017B018A01C0E0D0E00FC0AE
:100BE000D7016D917D01D601ED91FC910190F081CD
:100BF000E02DC6010995C80FD91F015010400115FD
:100C0000110571F7CE01DF91CF911F910F91FF90E8
:100C1000EF90DF90CF900895DB010D900020E9F771
:100C2000AD0141505040461B570BDC01ED91FC914A
:100C30000280F381E02D099508950E940C06089525
:100C4000DC01ED91FC910190F081E02D0995089572
:100C50000F931F93CF93DF93EC016DE00E9420066A
:100C60008C01CE016AE00E942006080F191FC801FE
:100C7000DF91CF911F910F9108950F931F93CF9301
:100C8000DF93EC010E940C068C01CE010E94280625
:100C9000080F191FC801DF91CF911F910F9108957F
:100CA000CF93DF930E9493080E949C01C0E4D7E099
:100CB0000E941E022097E1F30E944007F9CFFC0139
:100CC00084859585FC01E05CFF4F208131818E5B3E
:100CD0009F4FFC0180819181281B390B2F7330704D
:100CE000C9010895FC0184859585FC01E05CFF4FF6
:100CF00040815181FC01EE5BFF4F20813181421721
:100D0000530741F00190F081E02DE80FF91F208199
:100D100030E002C02FEF3FEFC9010895FC01848548
:100D20009585FC01E05CFF4F40815181FC01EE5B49
:100D3000FF4F208131814217530771F0A081B181AB
:100D4000A80FB91F2C918081918101968F739070AB
:100D50009183808330E002C02FEF3FEFC9010895F7
:100D6000DC011E968D919C911F97FC01E05CFF4F6A
:100D70008E5B9F4F40815181DC012D913C911197F9
:100D800042175307B9F708951F93FC01162F2685C4
:100D90003785D901A05CBF4F8D919C91019660E48D
:100DA00070E00E94CE08D901AE5BBF4F4D915C91BF
:100DB000119784179507D1F3D901A05CBF4F0D900F
:100DC000BC91A02DA20FB31F1C93A685B785A05C74
:100DD000BF4F11969C938E93A689B7892C9181E081
:100DE00090E0058C02C0880F991F0A94E2F7282B27
:100DF0002C9381E090E01F910895FB01E05CFF4F90
:100E0000208131812F5F3F4F2F733070DB01AE5B4C
:100E1000BF4F4D915C9111972417350739F0A08190
:100E2000B181A60FB71F8C93318320830895089555
:100E30001F920F920FB60F9211242F933F934F934F
:100E40005F936F937F938F939F93AF93BF93EF9332
:100E5000FF938091C6006FE272E00E94FD06FF9151
:100E6000EF91BF91AF919F918F917F916F915F9122
:100E70004F913F912F910F900FBE0F901F9018959B
:100E800087EB92E00E945F06009711F00E9417071F
:100E900008951F920F920FB60F9211242F933F9334
:100EA0005F936F937F938F939F93AF93BF93EF93D2
:100EB000FF932091B3023091B4028091B5029091DA
:100EC000B6022817390731F48091C1008F7D8093D5
:100ED000C10016C0E091B502F091B602ED58FD4F89
:100EE00020818091B5029091B602019660E470E095
:100EF0000E94CE089093B6028093B5022093C6005C
:100F0000FF91EF91BF91AF919F918F917F916F91E1
:100F10005F913F912F910F900FBE0F901F901895EA
:100F2000DF92EF92FF920F931F93CF93DF93EC0129
:100F30007A018B01DD24D394403081EE580780E0A4
:100F4000680780E0780749F4DD24EC89FD89108288
:100F500060E874E88EE190E00FC0EC89FD8981E0E3
:100F600090E00E8C02C0880F991F0A94E2F78083EC
:100F700060E079E08DE390E0A80197010E94E1082C
:100F80002150304040405040569547953795279521
:100F900080E12030380710F0DD20B1F6E889F989CA
:100FA0003083EA89FB892083EE89FF89408181E0D3
:100FB00090E09C010A8C02C0220F331F0A94E2F7D2
:100FC000422B4083EE89FF8940819C010B8C02C03B
:100FD000220F331F0A94E2F7422B4083EE89FF89E8
:100FE00040819C010C8C02C0220F331F0A94E2F74F
:100FF000422B4083EE89FF8920810D8C02C0880F2F
:10100000991F0A94E2F7809582238083DF91CF9124
:101010001F910F91FF90EF90DF9008951092BA0208
:101020001092B90288EE93E0A0E0B0E08093BB029A
:101030009093BC02A093BD02B093BE02E9EBF2E034
:101040008AEA91E0929382938FE292E09587848777
:1010500083E792E09787868785EC90E0918B808B81
:1010600084EC90E0938B828B80EC90E0958B848B6A
:1010700081EC90E0978B868B86EC90E0918F808F4F
:1010800084E0828F83E0838F87E0848F85E0858F83
:1010900081E0868F08951F920F920FB60F92112450
:1010A0002F933F938F939F93AF93BF938091DA02D7
:1010B0009091DB02A091DC02B091DD023091DE0262
:1010C0000196A11DB11D232F2D5F2D3720F02D5727
:1010D0000196A11DB11D2093DE028093DA02909348
:1010E000DB02A093DC02B093DD028091D6029091E6
:1010F000D702A091D802B091D9020196A11DB11DCD
:101100008093D6029093D702A093D802B093D902CD
:10111000BF91AF919F918F913F912F910F900FBEF3
:101120000F901F901895789484B5826084BD84B523
:10113000816084BD85B5826085BD85B5816085BDD2
:10114000EEE6F0E0808181608083E1E8F0E01082EB
:10115000808182608083808181608083E0E8F0E02C
:10116000808181608083E1EBF0E080818460808316
:10117000E0EBF0E0808181608083EAE7F0E080814D
:1011800084608083808182608083808181608083AD
:101190008081806880831092C100089597FB092E9A
:1011A00007260AD077FD04D02ED006D000201AF4EE
:1011B000709561957F4F0895F6F7909581959F4FB3
:1011C0000895A1E21A2EAA1BBB1BFD010DC0AA1F88
:1011D000BB1FEE1FFF1FA217B307E407F50720F0A0
:1011E000A21BB30BE40BF50B661F771F881F991F1B
:1011F0001A9469F760957095809590959B01AC0164
:10120000BD01CF010895AA1BBB1B51E107C0AA1F56
:10121000BB1FA617B70710F0A61BB70B881F991F97
:101220005A95A9F780959095BC01CD010895EE0FD0
:10123000FF1F0590F491E02D099411E0C6E5D1E07F
:1012400004C0FE010E9419092296C835D107C9F7CA
:04125000F894FFCF40
:1012540045786974696E6720436F6D6D616E6420B3
:101264004D6F646500456E746572696E6720436FE7
:101274006D6D616E64206D6F64652C2053656E64C2
:10128400696E672027415427004154000D0A436DBD
:10129400642053656E743A200052656C6179205065
:1012A400726F636573736F7220776F726B696E67A9
:1012B400202E2E2E00535441525445440055736938
:1012C4006E672052656C61792050726F6365737329
:1012D4006F72004E6F2050726F636573736F72206C
:1012E400666F756E6400000000002303E2054E0281
:1012F4002D027902680200000000C406E2055F06C0
:061304008E067206B00621
:00000001FF
