:100000000C94AC000C94D4000C94D4000C94180301
:100010000C943C030C9460030C94D4000C94D40016
:100020000C94D4000C94D4000C94D4000C94D40000
:100030000C94D4000C94D4000C94D4000C94D400F0
:100040000C94CF070C94D4000C949C060C94CD0611
:100050000C94D4000C94D4000C94D4000C94D400D0
:100060000C94D4000C94D40000C2010001001100D3
:1000700011000C0000E100000A002500250021000D
:10008000009600001900390039003600127A00008D
:100090001F004600460044008070000022004D0012
:1000A0004D004A00004B00003600750075007200DC
:1000B000403800004A009C009C0099008025000008
:1000C0007200EC00EC00E900C0120000E900DA0167
:1000D000DA01D70160090000D701B603B603B30304
:1000E000B0040000B3036E076E076B072C0100001D
:1000F000DC0EC11DC11DBE1D000000002400270034
:100100002A0000000000250028002B00000000004D
:100110002300260029000404040404040404020249
:100120000202020203030303030301020408102076
:100130004080010204081020010204081020000081
:100140000007000201000003040600000000000098
:100150000000A7019207AC0111241FBECFEFD8E029
:10016000DEBFCDBF11E0A0E0B1E0ECE5F1E102C0FF
:1001700005900D92A635B107D9F712E0A6E5B1E0DA
:1001800001C01D92A836B107E1F711E0C6E5D1E044
:1001900004C02297FE010E949D08C235D107C9F70D
:1001A0000E94D4050C94A1080C94000081309105A4
:1001B00041F486E591E06EE04FE020E00E94D2033A
:1001C0000895009721F486E591E00E94D5040895F2
:1001D00081E161E00E942E0581E160E00E942E0530
:1001E000089582E161E00E942E0582E160E00E94B4
:1001F0002E0508951F93CF93DF93182FC0E0D0E012
:10020000612F617080E10E942E050E94E800159523
:100210002196C830D105A1F70E94F1001092730118
:1002200010927201DF91CF911F910895CF93DF93C8
:10023000C0E4D2E0CE0140E855E260E070E00E9408
:10024000140786E591E040E855E260E070E00E9426
:10025000FF0383E161E00E942E0583E161E00E94DB
:100260000A0580E161E00E940A0581E161E00E94E7
:100270000A0582E161E00E940A0580E160E00E94D7
:100280002E050E94E8000E94E8000E94E8000E94FB
:10029000E8000E94E8000E94E8000E94E8000E9436
:1002A000E8000E94F10083E160E00E942E05CE018B
:1002B00060E071E00E94C105DF91CF9108951F9326
:1002C000182F813061F480E492E068E071E00E94D0
:1002D000A1052AEF30E03093730120937201612F62
:1002E000772767FD7095625E7E4F80E492E00E9402
:1002F000A10580E492E00E94AC0580E492E00E94B7
:1003000034061F9108951F9316C086E591E00E9460
:10031000B101182F80E492E0612F0E94A405E091C2
:100320007201F0917301309721F4812F0E945F01D7
:1003300002C0812F099586E591E00E94D20118162E
:1003400019061CF31F9108950E948301089581E00E
:1003500090E00E94D600089580E090E00E94D600D0
:100360000895209174013091750128173907B1F46F
:100370009091B7018091B601981781F0E091B70193
:10038000F0E0EA58FE4F20818091B70190E001969D
:100390008F7390708093B70130E002C02FEF3FEF72
:1003A000C90108952091740130917501281739070A
:1003B00079F48091B6012091B70190E0805C9F4F65
:1003C000821B910960E470E00E9452089C0102C007
:1003D00020E030E0C9010895209174013091750149
:1003E0002817390749F48FB7F8941092B601909105
:1003F000B6019093B7018FBF089520917401309199
:1004000075012817390781F49091B7018091B601E1
:10041000981751F0E091B701F0E0EA58FE4F2081C3
:10042000332727FD309502C02FEF3FEFC901089514
:1004300020E001972FEF8F3F9207D9F70895FC0135
:1004400080917401909175018E179F0791F0838DB3
:100450008E7F838F8FB7F8941092B6019091B6017A
:100460009093B701F0937501E09374018FBF81E021
:10047000089580E00895EF92FF920F931F93CF931A
:10048000DF93EC018B8DEE85FF859D8581FF04C098
:100490008081892329F445C08081892309F041C0E6
:1004A0008B899C890E94180208E010E0EE24E394F6
:1004B000FF248D899E890E941802EE85FF85808128
:1004C0009D85892311F0FE2803C08E2D8095F8228A
:1004D000EE0C0150104069F78F89988D0E94180228
:1004E0008B8D81FDF0948091B6012091B70190E051
:1004F00001968F73907030E08217930779F0E09146
:10050000B601F0E0EA58FE4FF0828091B60190E02B
:1005100001968F7390708093B60103C08B8D8160BC
:100520008B8FDF91CF911F910F91FF90EF900895E6
:10053000FC01A189B2899089662329F42C91892F25
:100540008095822302C08C91892B8C930895DF9231
:10055000EF92FF920F931F93CF93DF93EC01E62E60
:10056000898D9A8D009739F481E090E09B838A838E
:1005700020E030E04BC0DFB6F8948B8D61E081FF66
:1005800060E0CE010E949802898D9A8D05960E94A6
:1005900018028B8D81FF19C008E010E0FF24F3944E
:1005A0008F2D8E2119F0CE0160E002C0CE0161E0F6
:1005B0000E949802898D9A8D0E941802FF0C0150AA
:1005C000104071F7CE0160E018C008E010E0FF2491
:1005D000F3948F2D8E2119F0CE0161E002C0CE017F
:1005E00060E00E949802898D9A8D0E941802FF0C8B
:1005F0000150104071F7CE0161E00E949802DFBE09
:10060000898D9A8D0E94180221E030E0C901DF91A6
:10061000CF911F910F91FF90EF90DF9008958091FF
:10062000740190917501009711F00E943B020895AA
:100630001F920F920FB60F9211242F933F934F9357
:100640005F936F937F938F939F93AF93BF93EF933A
:10065000FF930E940F03FF91EF91BF91AF919F9184
:100660008F917F916F915F914F913F912F910F905B
:100670000FBE0F901F9018951F920F920FB60F92FA
:1006800011242F933F934F935F936F937F938F9397
:100690009F93AF93BF93EF93FF930E940F03FF913C
:1006A000EF91BF91AF919F918F917F916F915F91EA
:1006B0004F913F912F910F900FBE0F901F90189563
:1006C0001F920F920FB60F9211242F933F934F93C7
:1006D0005F936F937F938F939F93AF93BF93EF93AA
:1006E000FF930E940F03FF91EF91BF91AF919F91F4
:1006F0008F917F916F915F914F913F912F910F90CB
:100700000FBE0F901F9018951F93CF93DF93EC01AE
:10071000162F862F61E00E940A05812F61E00E945A
:100720002E05812F90E0FC01E65DFE4FE491E88B01
:10073000FC01EA5EFE4FE491F0E0EE0FFF1FEE5F7A
:10074000FE4F85919491898B9A8BDF91CF911F9168
:1007500008951F93CF93DF93EC01162F862F60E04F
:100760000E940A058B8D81FD04C0812F61E00E94EB
:100770002E051C87812F90E0FC01E65DFE4FE49181
:10078000ED87FC01EA5EFE4FE491F0E0EE0FFF1F03
:10079000E45FFE4F859194918E879F87DF91CF9183
:1007A0001F9108951F93CF93DF93EC01162F1B82A7
:1007B0001A8288EE93E0A0E0B0E08C839D83AE8344
:1007C000BF838AE391E0998388831C8A1B8A1E8AEF
:1007D0001D8A188E1F8A1A8E198E8B8D2170220FFA
:1007E0008C7F822B8B8FCE01642F0E948403CE01DD
:1007F000612F0E94A903DF91CF911F910895EF927D
:10080000FF920F931F93CF93DF93EC017A018B013B
:100810001A8E198E188E1F8A1E8A1D8A1C8A1B8AA0
:1008200040E050E09A01220F331F240F351F220FA2
:10083000331F220F331FF901E859FF4F859195911E
:10084000A591B4918E159F05A007B107E9F4F901B0
:10085000E459FF4F859194918B8B9C8BF901E25960
:10086000FF4F859194918D8B9E8BF901E059FF4F3D
:10087000859194918F8B988F2E583F4FF9018591D8
:100880009491898F9A8F06C04F5F5F4F4C3051050E
:1008900009F0C8CF8F89988D009709F448C09C85CE
:1008A000963108F040C020916800983020F09E30CA
:1008B00020F082E003C084E001C081E0822B8093BD
:1008C00068004C85483048F04E3060F04631C8F141
:1008D000A0E0B0E0E0E0F0E009C0ADE6B0E0EDE6B9
:1008E000F0E004C0ABE6B0E0EBE6F0E05081483069
:1008F00040F481E090E002C0880F991F4A95E2F72A
:1009000010C0242F30E04E3018F42850304002C080
:100910002E50304081E090E002C0880F991F2A9548
:10092000E2F7852B8C93898D9A8D0E941802CE0157
:100930000E941F02DF91CF911F910F91FF90EF90C6
:100940000895ACE6B0E0ECE6F0E0D0CFFC014485E1
:10095000463150F5483028F04E3030F0ECE6F0E00B
:1009600005C0EDE6F0E002C0EBE6F0E05081483073
:1009700040F481E090E002C0880F991F4A95E2F7A9
:1009800010C0242F30E04E3018F42850304002C000
:100990002E50304081E090E002C0880F991F2A95C8
:1009A000E2F780958523808308952AE331E0FC01F6
:1009B000318320830E94A6040895833071F084302F
:1009C00028F48130A1F0823021F514C08630B1F0D6
:1009D0008730D1F08430E9F404C0809180008F77B3
:1009E00003C0809180008F7D80938000089584B53E
:1009F0008F7702C084B58F7D84BD08958091B0004B
:100A00008F778093B00008958091B0008F7D8093A0
:100A1000B000089590E0FC01E65DFE4F2491FC01DA
:100A2000EA5EFE4FE491EE23C1F0F0E0EE0FFF1F0F
:100A3000E850FF4F85919491DC01662341F49FB704
:100A4000F8948C91209582238C939FBF08959FB733
:100A5000F8948C91822B8C939FBF08950F931F93D2
:100A6000DF93CF930F92CDB7DEB7282F30E0F90197
:100A7000E25CFE4F8491F901E65DFE4F14912A5E1F
:100A80003E4FF90104910023D9F0882321F06983B6
:100A90000E94DD046981E02FF0E0EE0FFF1FEE5FA2
:100AA000FE4F85919491DC019FB7F894662321F461
:100AB0008C911095812302C08C91812B8C939FBFC8
:100AC0000F90CF91DF911F910F910895CF92DF92F8
:100AD000EF92FF920F931F93CF93DF936C017B01F3
:100AE0008A01C0E0D0E00FC0D7016D917D01D60131
:100AF000ED91FC910190F081E02DC6010995C80FA0
:100B0000D91F015010400115110571F7CE01DF9179
:100B1000CF911F910F91FF90EF90DF90CF900895AC
:100B2000DB010D900020E9F7AD0141505040461B1C
:100B3000570BDC01ED91FC910280F381E02D0995CA
:100B400008950E9490050895DC01ED91FC910190BB
:100B5000F081E02D099508950F931F93CF93DF93B4
:100B6000EC016DE00E94A4058C01CE016AE00E94B8
:100B7000A405080F191FC801DF91CF911F910F9194
:100B800008950F931F93CF93DF93EC010E9490057C
:100B90008C01CE010E94AC05080F191FC801DF911E
:100BA000CF911F910F910895CF93DF930E94170863
:100BB0000E941601C4ECD6E00E94A4012097E1F344
:100BC0000E94C406F9CFFC0184859585FC01E05C98
:100BD000FF4F208131818E5B9F4FFC01808191818D
:100BE000281B390B2F733070C9010895FC018485CF
:100BF0009585FC01E05CFF4F40815181FC01EE5B7B
:100C0000FF4F208131814217530741F00190F0815D
:100C1000E02DE80FF91F208130E002C02FEF3FEFF9
:100C2000C9010895FC0184859585FC01E05CFF4FB6
:100C300040815181FC01EE5BFF4F208131814217E1
:100C4000530771F0A081B181A80FB91F2C91808149
:100C5000918101968F7390709183808330E002C000
:100C60002FEF3FEFC9010895DC011E968D919C91F5
:100C70001F97FC01E05CFF4F8E5B9F4F40815181CD
:100C8000DC012D913C91119742175307B9F7089554
:100C90001F93FC01162F26853785D901A05CBF4F15
:100CA0008D919C91019660E470E00E945208D901F8
:100CB000AE5BBF4F4D915C91119784179507D1F3AF
:100CC000D901A05CBF4F0D90BC91A02DA20FB31F06
:100CD0001C93A685B785A05CBF4F11969C938E93FD
:100CE000A689B7892C9181E090E0058C02C0880F1D
:100CF000991F0A94E2F7282B2C9381E090E01F9132
:100D00000895FB01E05CFF4F208131812F5F3F4F51
:100D10002F733070DB01AE5BBF4F4D915C9111972B
:100D20002417350739F0A081B181A60FB71F8C9326
:100D300031832083089508951F920F920FB60F926A
:100D400011242F933F934F935F936F937F938F93D0
:100D50009F93AF93BF93EF93FF938091C60068EB8F
:100D600071E00E948106FF91EF91BF91AF919F9139
:100D70008F917F916F915F914F913F912F910F9044
:100D80000FBE0F901F90189580E492E00E94E3053B
:100D9000009711F00E949B0608951F920F920FB6C4
:100DA0000F9211242F933F935F936F937F938F93B1
:100DB0009F93AF93BF93EF93FF9320913C023091A9
:100DC0003D0280913E0290913F022817390731F48D
:100DD0008091C1008F7D8093C10016C0E0913E02DA
:100DE000F0913F02E450FE4F208180913E029091AD
:100DF0003F02019660E470E00E94520890933F0227
:100E000080933E022093C600FF91EF91BF91AF9176
:100E10009F918F917F916F915F913F912F910F9053
:100E20000FBE0F901F901895DF92EF92FF920F93D5
:100E30001F93CF93DF93EC017A018B01DD24D394D0
:100E4000403081EE580780E0680780E0780749F479
:100E5000DD24EC89FD89108260E874E88EE190E081
:100E60000FC0EC89FD8981E090E00E8C02C0880FF4
:100E7000991F0A94E2F7808360E079E08DE390E0C7
:100E8000A80197010E946508215030404040504021
:100E9000569547953795279580E12030380710F013
:100EA000DD20B1F6E889F9893083EA89FB8920835E
:100EB000EE89FF89408181E090E09C010A8C02C0AC
:100EC000220F331F0A94E2F7422B4083EE89FF89F9
:100ED00040819C010B8C02C0220F331F0A94E2F761
:100EE000422B4083EE89FF8940819C010C8C02C01B
:100EF000220F331F0A94E2F7422B4083EE89FF89C9
:100F000020810D8C02C0880F991F0A94E2F780950A
:100F100082238083DF91CF911F910F91FF90EF90FB
:100F2000DF900895109243021092420288EE93E0FF
:100F3000A0E0B0E08093440290934502A093460263
:100F4000B0934702E2E4F2E08AE491E09293829364
:100F500088EB91E0958784878CEF91E0978786876F
:100F600085EC90E0918B808B84EC90E0938B828B6E
:100F700080EC90E0958B848B81EC90E0978B868B56
:100F800086EC90E0918F808F84E0828F83E0838F66
:100F900087E0848F85E0858F81E0868F08951F929A
:100FA0000F920FB60F9211242F933F938F939F931D
:100FB000AF93BF938091630290916402A091650208
:100FC000B0916602309167020196A11DB11D232FD9
:100FD0002D5F2D3720F02D570196A11DB11D2093B7
:100FE00067028093630290936402A0936502B093BA
:100FF000660280915F0290916002A0916102B091BF
:1010000062020196A11DB11D80935F029093600260
:10101000A0936102B0936202BF91AF919F918F91B3
:101020003F912F910F900FBE0F901F9018957894BD
:1010300084B5826084BD84B5816084BD85B58260DD
:1010400085BD85B5816085BDEEE6F0E0808181607B
:101050008083E1E8F0E0108280818260808380817B
:1010600081608083E0E8F0E0808181608083E1EB53
:10107000F0E0808184608083E0EBF0E0808181603B
:101080008083EAE7F0E080818460808380818260F1
:1010900080838081816080838081806880831092DA
:1010A000C100089597FB092E07260AD077FD04D0CA
:1010B0002ED006D000201AF4709561957F4F0895C8
:1010C000F6F7909581959F4F0895A1E21A2EAA1BDD
:1010D000BB1BFD010DC0AA1FBB1FEE1FFF1FA217E8
:1010E000B307E407F50720F0A21BB30BE40BF50BE5
:1010F000661F771F881F991F1A9469F7609570956E
:10110000809590959B01AC01BD01CF010895AA1B6C
:10111000BB1B51E107C0AA1FBB1FA617B70710F0E2
:10112000A61BB70B881F991F5A95A9F78095909514
:10113000BC01CD010895EE0FFF1F0590F491E02D45
:10114000099411E0C6E5D1E004C0FE010E949D08AB
:0C1150002296C835D107C9F7F894FFCFEC
:10115C0053544152544544005573696E672052658F
:10116C006C61792050726F636573736F72004E6F90
:10117C002050726F636573736F7220666F756E6447
:10118C0020666F72200000000000A7026605D201E5
:10119C00B101FD01EC010000000048066605E30505
:0611AC001206F6053406F0
:00000001FF
