:100000000C94AC000C94D4000C94D4000C94CA034F
:100010000C94EE030C9412040C94D4000C94D400B1
:100020000C94D4000C94D4000C94D4000C94D40000
:100030000C94D4000C94D4000C94D4000C94D400F0
:100040000C9481080C94D4000C944E070C947F07F8
:100050000C94D4000C94D4000C94D4000C94D400D0
:100060000C94D4000C94D40000C2010001001100D3
:1000700011000C0000E100000A002500250021000D
:10008000009600001900390039003600127A00008D
:100090001F004600460044008070000022004D0012
:1000A0004D004A00004B00003600750075007200DC
:1000B000403800004A009C009C0099008025000008
:1000C0007200EC00EC00E900C0120000E900DA0167
:1000D000DA01D70160090000D701B603B603B30304
:1000E000B0040000B3036E076E076B072C0100001D
:1000F000DC0EC11DC11DBE1D000000002400270034
:100100002A0000000000250028002B00000000004D
:100110002300260029000404040404040404020249
:100120000202020203030303030301020408102076
:100130004080010204081020010204081020000081
:100140000007000201000003040600000000000098
:100150000000590244085E0211241FBECFEFD8E010
:10016000DEBFCDBF11E0A0E0B1E0E0ECF2E102C003
:1001700005900D92AA3DB107D9F713E0AAEDB1E0C1
:1001800001C01D92A530B107E1F711E0C6E5D1E04D
:1001900004C02297FE010E944F09C235D107C9F75A
:1001A0000E9486060C9453090C940000813091053E
:1001B00041F48AED91E06EE04FE020E00E9484047B
:1001C0000895009721F48AED91E00E948705089533
:1001D000FF920F931F93CF93DF93FF24F394C7EF06
:1001E000D1E004E15DC08DED92E00E94C406182FBD
:1001F0008E3769F48091F6018823E9F01092F601B8
:100200008DED92E060E071E00E94730614C08E35BF
:1002100091F48091F601882371F4F092F6018DED4E
:1002200092E065E171E00E9473068AED91E069E376
:1002300071E00E9453068091F601882389F1113202
:10024000A1F020910B0230910C02F901E950FE4F10
:1002500010832F5F3F4F30930C0220930B028DEDE4
:1002600092E0612F0E9456061BC08AED91E067EF75
:1002700071E00E94530610920C0210920B028DED59
:1002800092E06CE371E00E9453068DED92E067EF1F
:1002900071E00E947306FE01802F11928A95E9F7A2
:1002A0008DED92E00E949506181619060CF49BCF6E
:1002B000DF91CF911F910F91FF9008958AED91E00A
:1002C0000E94840209C08AED91E00E946302682FB7
:1002D0008DED92E00E9456068AED91E00E94840224
:1002E0001816190684F3089581E161E00E94E00583
:1002F00081E160E00E94E00508951F93CF93DF93B2
:10030000182FC0E0D0E0612F617080E10E94E0050D
:100310000E94740115952196C830D105A1F7DF918F
:10032000CF911F91089582E161E00E94E00582E192
:1003300060E00E94E00508951F930DC08AED91E0F2
:100340000E946302182F8DED92E0612F0E945606E5
:10035000812F0E947D018AED91E00E94840218168F
:10036000190664F30E9493011F910895CF93DF93C0
:10037000C0910D02D0910E028AED91E00E9484029C
:10038000C817D9076CF41092100210920F028AED70
:1003900091E00E94840290930E0280930D0210C09F
:1003A0008AED91E00E948402181619064CF480919F
:1003B0000F029091100201969093100280930F0209
:1003C00080910F029091100283309105BCF0109241
:1003D000100210920F0210920E0210920D028091E4
:1003E000F601882319F00E945E0102C00E949C0160
:1003F0008DED92E067E471E00E947306DF91CF918A
:1004000008950E94E8000E94B60108950F931F937B
:10041000CF93DF93CDEDD2E0CE0140E855E260E02E
:1004200070E00E94C6070AED11E0C80140E855E2FD
:1004300060E070E00E94B10483E161E00E94E005A9
:1004400083E161E00E94BC0580E161E00E94BC059F
:1004500081E161E00E94BC0582E161E00E94BC058F
:1004600080E160E00E94E0050E9474010E94740136
:100470000E9474010E9474010E9474010E94740120
:100480000E9474010E9474010E94930183E160E064
:100490000E94E005CE0169E471E00E947306C80184
:1004A00061E571E00E947306DF91CF911F910F917A
:1004B000089581E090E00E94D600089580E090E0E9
:1004C0000E94D6000895209111023091120228173F
:1004D0003907B1F49091540280915302981781F03A
:1004E000E0915402F0E0ED5EFD4F208180915402D6
:1004F00090E001968F7390708093540230E002C0B8
:100500002FEF3FEFC901089520911102309112029F
:100510002817390779F4809153022091540290E012
:10052000805C9F4F821B910960E470E00E94040987
:100530009C0102C020E030E0C90108952091110221
:10054000309112022817390749F48FB7F8941092A6
:10055000530290915302909354028FBF08952091BB
:100560001102309112022817390781F49091540238
:1005700080915302981751F0E0915402F0E0ED5E43
:10058000FD4F2081332727FD309502C02FEF3FEF2D
:10059000C901089520E001972FEF8F3F9207D9F707
:1005A0000895FC0180911102909112028E179F070D
:1005B00091F0838D8E7F838F8FB7F89410925302C2
:1005C0009091530290935402F0931202E09311021F
:1005D0008FBF81E0089580E00895EF92FF920F931E
:1005E0001F93CF93DF93EC018B8DEE85FF859D8567
:1005F00081FF04C08081892329F445C0808189233B
:1006000009F041C08B899C890E94CA0208E010E071
:10061000EE24E394FF248D899E890E94CA02EE8510
:10062000FF8580819D85892311F0FE2803C08E2DD2
:100630008095F822EE0C0150104069F78F89988D53
:100640000E94CA028B8D81FDF0948091530220910B
:10065000540290E001968F73907030E082179307F8
:1006600079F0E0915302F0E0ED5EFD4FF082809171
:10067000530290E001968F7390708093530203C0F1
:100680008B8D81608B8FDF91CF911F910F91FF90A8
:10069000EF900895FC01A189B2899089662329F41D
:1006A0002C91892F8095822302C08C91892B8C9369
:1006B0000895DF92EF92FF920F931F93CF93DF93F2
:1006C000EC01E62E898D9A8D009739F481E090E057
:1006D0009B838A8320E030E04BC0DFB6F8948B8D9B
:1006E00061E081FF60E0CE010E944A03898D9A8D0E
:1006F00005960E94CA028B8D81FF19C008E010E0A8
:10070000FF24F3948F2D8E2119F0CE0160E002C0FA
:10071000CE0161E00E944A03898D9A8D0E94CA022F
:10072000FF0C0150104071F7CE0160E018C008E0E6
:1007300010E0FF24F3948F2D8E2119F0CE0161E09B
:1007400002C0CE0160E00E944A03898D9A8D0E940A
:10075000CA02FF0C0150104071F7CE0161E00E9407
:100760004A03DFBE898D9A8D0E94CA0221E030E0E3
:10077000C901DF91CF911F910F91FF90EF90DF9012
:1007800008958091110290911202009711F00E9439
:10079000ED0208951F920F920FB60F9211242F931E
:1007A0003F934F935F936F937F938F939F93AF93F9
:1007B000BF93EF93FF930E94C103FF91EF91BF910D
:1007C000AF919F918F917F916F915F914F913F91E9
:1007D0002F910F900FBE0F901F9018951F920F92A0
:1007E0000FB60F9211242F933F934F935F936F9304
:1007F0007F938F939F93AF93BF93EF93FF930E9449
:10080000C103FF91EF91BF91AF919F918F917F9124
:100810006F915F914F913F912F910F900FBE0F906D
:100820001F9018951F920F920FB60F9211242F93BD
:100830003F934F935F936F937F938F939F93AF9368
:10084000BF93EF93FF930E94C103FF91EF91BF917C
:10085000AF919F918F917F916F915F914F913F9158
:100860002F910F900FBE0F901F9018951F93CF934D
:10087000DF93EC01162F862F61E00E94BC05812FCB
:1008800061E00E94E005812F90E0FC01E65DFE4FF3
:10089000E491E88BFC01EA5EFE4FE491F0E0EE0F9C
:1008A000FF1FEE5FFE4F85919491898B9A8BDF91AC
:1008B000CF911F9108951F93CF93DF93EC01162FD3
:1008C000862F60E00E94BC058B8D81FD04C0812FC6
:1008D00061E00E94E0051C87812F90E0FC01E65D4D
:1008E000FE4FE491ED87FC01EA5EFE4FE491F0E0FB
:1008F000EE0FFF1FE45FFE4F859194918E879F87D7
:10090000DF91CF911F9108951F93CF93DF93EC0157
:10091000162F1B821A8288EE93E0A0E0B0E08C8351
:100920009D83AE83BF838DEB91E0998388831C8A7E
:100930001B8A1E8A1D8A188E1F8A1A8E198E8B8D0D
:100940002170220F8C7F822B8B8FCE01642F0E940F
:100950003604CE01612F0E945B04DF91CF911F917D
:100960000895EF92FF920F931F93CF93DF93EC01C3
:100970007A018B011A8E198E188E1F8A1E8A1D8A83
:100980001C8A1B8A40E050E09A01220F331F240F7B
:10099000351F220F331F220F331FF901E859FF4F74
:1009A00085919591A591B4918E159F05A007B107EA
:1009B000E9F4F901E459FF4F859194918B8B9C8B5D
:1009C000F901E259FF4F859194918D8B9E8BF9012E
:1009D000E059FF4F859194918F8B988F2E583F4F00
:1009E000F90185919491898F9A8F06C04F5F5F4F6F
:1009F0004C30510509F0C8CF8F89988D009709F4C4
:100A000048C09C85963108F040C02091680098301D
:100A100020F09E3020F082E003C084E001C081E03D
:100A2000822B809368004C85483048F04E3060F04F
:100A30004631C8F1A0E0B0E0E0E0F0E009C0ADE68A
:100A4000B0E0EDE6F0E004C0ABE6B0E0EBE6F0E0ED
:100A50005081483040F481E090E002C0880F991F37
:100A60004A95E2F710C0242F30E04E3018F4285099
:100A7000304002C02E50304081E090E002C0880F2C
:100A8000991F2A95E2F7852B8C93898D9A8D0E9468
:100A9000CA02CE010E94D102DF91CF911F910F9126
:100AA000FF90EF900895ACE6B0E0ECE6F0E0D0CF38
:100AB000FC014485463150F5483028F04E3030F086
:100AC000ECE6F0E005C0EDE6F0E002C0EBE6F0E0B9
:100AD0005081483040F481E090E002C0880F991FB7
:100AE0004A95E2F710C0242F30E04E3018F4285019
:100AF000304002C02E50304081E090E002C0880FAC
:100B0000991F2A95E2F780958523808308952DEB20
:100B100031E0FC01318320830E9458050895833021
:100B200071F0843028F48130A1F0823021F514C0B6
:100B30008630B1F08730D1F08430E9F404C0809180
:100B400080008F7703C0809180008F7D809380002C
:100B5000089584B58F7702C084B58F7D84BD0895D4
:100B60008091B0008F778093B00008958091B0009D
:100B70008F7D8093B000089590E0FC01E65DFE4F0C
:100B80002491FC01EA5EFE4FE491EE23C1F0F0E017
:100B9000EE0FFF1FE850FF4F85919491DC01662313
:100BA00041F49FB7F8948C91209582238C939FBF3A
:100BB00008959FB7F8948C91822B8C939FBF0895D2
:100BC0000F931F93DF93CF930F92CDB7DEB7282FEC
:100BD00030E0F901E25CFE4F8491F901E65DFE4FE1
:100BE00014912A5E3E4FF90104910023D9F0882325
:100BF00021F069830E948F056981E02FF0E0EE0FFC
:100C0000FF1FEE5FFE4F85919491DC019FB7F89432
:100C1000662321F48C911095812302C08C91812B45
:100C20008C939FBF0F90CF91DF911F910F910895EB
:100C3000CF92DF92EF92FF920F931F93CF93DF93A8
:100C40006C017B018A01C0E0D0E00FC0D7016D913B
:100C50007D01D601ED91FC910190F081E02DC6015E
:100C60000995C80FD91F015010400115110571F7E2
:100C7000CE01DF91CF911F910F91FF90EF90DF9008
:100C8000CF900895DB010D900020E9F7AD014150B0
:100C90005040461B570BDC01ED91FC910280F38123
:100CA000E02D099508950E9442060895DC01ED911A
:100CB000FC910190F081E02D099508950F931F9309
:100CC000CF93DF93EC016DE00E9456068C01CE01BC
:100CD0006AE00E945606080F191FC801DF91CF91E4
:100CE0001F910F9108950F931F93CF93DF93EC0102
:100CF0000E9442068C01CE010E945E06080F191F59
:100D0000C801DF91CF911F910F910895CF93DF9389
:100D10000E94C9080E940602C6E7D7E00E940102AD
:100D20002097E1F30E947607F9CFFC018485958531
:100D3000FC01E05CFF4F208131818E5B9F4FFC0105
:100D400080819181281B390B2F733070C901089560
:100D5000FC0184859585FC01E05CFF4F4081518159
:100D6000FC01EE5BFF4F208131814217530741F0B8
:100D70000190F081E02DE80FF91F208130E002C0E2
:100D80002FEF3FEFC9010895FC0184859585FC0193
:100D9000E05CFF4F40815181FC01EE5BFF4F208101
:100DA00031814217530771F0A081B181A80FB91F9B
:100DB0002C918081918101968F73907091838083B3
:100DC00030E002C02FEF3FEFC9010895DC011E960D
:100DD0008D919C911F97FC01E05CFF4F8E5B9F4FB4
:100DE00040815181DC012D913C91119742175307AD
:100DF000B9F708951F93FC01162F26853785D90171
:100E0000A05CBF4F8D919C91019660E470E00E94C0
:100E10000409D901AE5BBF4F4D915C9111978417C6
:100E20009507D1F3D901A05CBF4F0D90BC91A02DC7
:100E3000A20FB31F1C93A685B785A05CBF4F119668
:100E40009C938E93A689B7892C9181E090E0058CC4
:100E500002C0880F991F0A94E2F7282B2C9381E097
:100E600090E01F910895FB01E05CFF4F20813181EC
:100E70002F5F3F4F2F733070DB01AE5BBF4F4D9143
:100E80005C9111972417350739F0A081B181A60F25
:100E9000B71F8C9331832083089508951F920F927A
:100EA0000FB60F9211242F933F934F935F936F933D
:100EB0007F938F939F93AF93BF93EF93FF93809113
:100EC000C60065E572E00E943307FF91EF91BF9184
:100ED000AF919F918F917F916F915F914F913F91D2
:100EE0002F910F900FBE0F901F9018958DED92E0EF
:100EF0000E949506009711F00E944D0708951F92D9
:100F00000F920FB60F9211242F933F935F936F931D
:100F10007F938F939F93AF93BF93EF93FF93209112
:100F2000D9023091DA028091DB029091DC0228171D
:100F3000390731F48091C1008F7D8093C10016C0C4
:100F4000E091DB02F091DC02E756FD4F20818091B9
:100F5000DB029091DC02019660E470E00E940409DB
:100F60009093DC028093DB022093C600FF91EF9107
:100F7000BF91AF919F918F917F916F915F913F91C1
:100F80002F910F900FBE0F901F901895DF92EF9248
:100F9000FF920F931F93CF93DF93EC017A018B01A4
:100FA000DD24D394403081EE580780E0680780E06C
:100FB000780749F4DD24EC89FD89108260E874E843
:100FC0008EE190E00FC0EC89FD8981E090E00E8C0D
:100FD00002C0880F991F0A94E2F7808360E079E0ED
:100FE0008DE390E0A80197010E941709215030403D
:100FF00040405040569547953795279580E12030E1
:10100000380710F0DD20B1F6E889F9893083EA89E4
:10101000FB892083EE89FF89408181E090E09C017B
:101020000A8C02C0220F331F0A94E2F7422B40833E
:10103000EE89FF8940819C010B8C02C0220F331F77
:101040000A94E2F7422B4083EE89FF8940819C019C
:101050000C8C02C0220F331F0A94E2F7422B40830C
:10106000EE89FF8920810D8C02C0880F991F0A9498
:10107000E2F7809582238083DF91CF911F910F91BA
:10108000FF90EF90DF9008951092E0021092DF023F
:1010900088EE93E0A0E0B0E08093E1029093E2025A
:1010A000A093E302B093E402EFEDF2E08DEC91E067
:1010B0009293829385E592E09587848789E992E00F
:1010C0009787868785EC90E0918B808B84EC90E00D
:1010D000938B828B80EC90E0958B848B81EC90E0FD
:1010E000978B868B86EC90E0918F808F84E0828F47
:1010F00083E0838F87E0848F85E0858F81E0868F12
:1011000008951F920F920FB60F9211242F933F93C1
:101110008F939F93AF93BF938091000390910103AE
:10112000A0910203B0910303309104030196A11D25
:10113000B11D232F2D5F2D3720F02D570196A11DB6
:10114000B11D209304038093000390930103A093A7
:101150000203B09303038091FC029091FD02A091E1
:10116000FE02B091FF020196A11DB11D8093FC0209
:101170009093FD02A093FE02B093FF02BF91AF9146
:101180009F918F913F912F910F900FBE0F901F90C5
:101190001895789484B5826084BD84B5816084BDDF
:1011A00085B5826085BD85B5816085BDEEE6F0E0E0
:1011B000808181608083E1E8F0E01082808182603C
:1011C0008083808181608083E0E8F0E080818160BD
:1011D0008083E1EBF0E0808184608083E0EBF0E0ED
:1011E000808181608083EAE7F0E080818460808391
:1011F000808182608083808181608083808180683B
:1012000080831092C100089597FB092E07260AD00B
:1012100077FD04D02ED006D000201AF47095619589
:101220007F4F0895F6F7909581959F4F0895A1E21D
:101230001A2EAA1BBB1BFD010DC0AA1FBB1FEE1F50
:10124000FF1FA217B307E407F50720F0A21BB30B9B
:10125000E40BF50B661F771F881F991F1A9469F717
:1012600060957095809590959B01AC01BD01CF0173
:101270000895AA1BBB1B51E107C0AA1FBB1FA617DD
:10128000B70710F0A61BB70B881F991F5A95A9F72F
:1012900080959095BC01CD010895EE0FFF1F05903C
:1012A000F491E02D099411E0C6E5D1E004C0FE01FF
:1012B0000E944F092296C835D107C9F7F894FFCF8D
:1012C00045786974696E6720436F6D6D616E642047
:1012D0004D6F646500456E746572696E6720436F7B
:1012E0006D6D616E64206D6F64652C2053656E6456
:1012F000696E672027415427004154000D0A436D51
:10130000642053656E740020005354415254454488
:101310000054696D6520746F2077616B652075706E
:10132000212057616B65207570212054696D6520FF
:10133000746F2077616B65207570212057616B6534
:10134000207570212054696D6520746F2077616B62
:1013500065207570212057616B65207570212054C0
:10136000696D6520746F2077616B65207570212031
:1013700057616B652075702100000000005903184B
:101380000684026302AF029E0200000000FA061803
:0A139000069506C406A806E606004E
:00000001FF
